:020000040800F2
:10000000008001203544000835140008371400082A
:10001000391400083B1400083D14000800000000DB
:100020000000000000000000000000003F14000875
:1000300041140008000000004314000845140008A3
:10004000854400088544000885440008854400086C
:10005000854400088544000885440008854400085C
:10006000854400088544000885440008854400084C
:10007000854400088544000885440008854400083C
:100080004D1400085D1400088544000885440008EC
:10009000854400088544000885440008854400081C
:1000A000854400088544000885440008854400080C
:1000B0008544000885440008854400086D14000844
:1000C00085440008854400088544000885440008EC
:1000D00085440008854400088544000885440008DC
:1000E00085440008854400088544000885440008CC
:1000F00085440008854400088544000885440008BC
:1001000085440008854400088544000885440008AB
:10011000854400088544000885440008854400089B
:10012000854400088544000885440008854400088B
:10013000854400088544000885440008854400087B
:10014000854400088544000885440008854400086B
:10015000854400088544000885440008854400085B
:10016000854400088544000885440008854400084B
:10017000854400088544000885440008000000000C
:080180008544000885440008D5
:1001900010B5054C237833B9044B13B10448AFF3C1
:1001A00000800123237010BD7000002000000000BB
:1001B000084D000808B5034B1BB103490348AFF3D2
:1001C000008008BD0000000074000020084D0008F9
:1001D000034613F8012B002AFBD1181A0138704787
:1001E00001F0FF01102A2BDB10F0070F08D010F8E8
:1001F000013B013A8B422DD010F0070F42B3F6D1EC
:10020000F0B441EA012141EA014122F007047FF004
:1002100000070023F0E80256083C85EA010586EA5B
:10022000010685FA47F5A3FA87F586FA47F6A5FA97
:1002300087F68EB9EED1F0BC01F0FF0102F00702A3
:1002400032B110F8013B013A83EA010313B1F8D14E
:100250000020704701387047002D06BF354603382F
:10026000073815F0010F07D1013015F4807F02BF68
:10027000013015F4C03F0130F0BC0138704700BFB9
:1002800081F0004102E000BF83F0004330B54FEA47
:1002900041044FEA430594EA050F08BF90EA020FB4
:1002A0001FBF54EA000C55EA020C7FEA645C7FEA47
:1002B000655C00F0E2804FEA5454D4EB5555B8BF6A
:1002C0006D420CDD2C4480EA020281EA030382EADB
:1002D000000083EA010180EA020281EA0303362D6D
:1002E00088BF30BD11F0004F4FEA01314FF4801C40
:1002F0004CEA113102D0404261EB410113F0004F52
:100300004FEA03334CEA133302D0524263EB430308
:1003100094EA050F00F0A780A4F10104D5F1200EA6
:100320000DDB02FA0EFC22FA05F2801841F1000101
:1003300003FA0EF2801843FA05F359410EE0A5F1D5
:1003400020050EF1200E012A03FA0EFC28BF4CF006
:10035000020C43FA05F3C01851EBE37101F00045BC
:1003600007D54FF0000EDCF1000C7EEB00006EEBC9
:100370000101B1F5801F1BD3B1F5001F0CD3490853
:100380005FEA30004FEA3C0C04F101044FEA4452AA
:1003900012F5800F80F09A80BCF1004F08BF5FEA31
:1003A000500C50F1000041EB045141EA050130BD11
:1003B0005FEA4C0C404141EB010111F4801FA4F1B4
:1003C0000104E9D191F0000F04BF01460020B1FA09
:1003D00081F308BF2033A3F10B03B3F120020CDA41
:1003E0000C3208DD02F1140CC2F10C0201FA0CF01F
:1003F00021FA02F10CE002F11402D8BFC2F1200C84
:1004000001FA02F120FA0CFCDCBF41EA0C01904039
:10041000E41AA2BF01EB0451294330BD6FEA040482
:100420001F3C1CDA0C340EDC04F11404C4F120026D
:1004300020FA04F001FA02F340EA030021FA04F37F
:1004400045EA030130BDC4F10C04C4F1200220FAD6
:1004500002F001FA04F340EA0300294630BD21FA14
:1004600004F0294630BD94F0000F83F4801306BFDA
:1004700081F480110134013D4EE77FEA645C18BFCE
:100480007FEA655C29D094EA050F08BF90EA020F65
:1004900005D054EA000C04BF1946104630BD91EA5D
:1004A000030F1EBF0021002030BD5FEA545C05D160
:1004B0004000494128BF41F0004130BD14F580049F
:1004C0003CBF01F5801130BD01F0004545F0FE4113
:1004D00041F470014FF0000030BD7FEA645C1ABF48
:1004E000194610467FEA655C1CBF0B46024650EA7F
:1004F000013406BF52EA033591EA030F41F40021AB
:1005000030BD00BF90F0000F04BF0021704730B530
:100510004FF4806404F132044FF000054FF0000105
:1005200050E700BF90F0000F04BF0021704730B5C6
:100530004FF4806404F1320410F0004548BF40429B
:100540004FF000013EE700BF42004FEAE2014FEAF0
:1005500031014FEA02701FBF12F07F4393F07F4FCB
:1005600081F06051704732F07F4208BF704793F0CE
:100570007F4F04BF41F40021704730B54FF46074E1
:1005800001F0004521F000411CE700BF50EA0102E4
:1005900008BF704730B54FF000050AE050EA01028D
:1005A00008BF704730B511F0004502D5404261EBFD
:1005B00041014FF4806404F132045FEA915C3FF43E
:1005C000D8AE4FF003025FEADC0C18BF03325FEADB
:1005D000DC0C18BF033202EBDC02C2F1200300FA8C
:1005E00003FC20FA02F001FA03FE40EA0E0021FAB1
:1005F00002F11444BDE600BF70B54FF0FF0C4CF49F
:10060000E06C1CEA11541DBF1CEA135594EA0C0F50
:1006100095EA0C0F00F0DEF82C4481EA030621EA8B
:100620004C5123EA4C5350EA013518BF52EA0335C6
:1006300041F4801143F4801338D0A0FB02CE4FF078
:100640000005E1FB02E506F00042E0FB03E54FF0A8
:100650000006E1FB03569CF0000F18BF4EF0010EA0
:10066000A4F1FF04B6F5007F64F5407404D25FEA9C
:100670004E0E6D4146EB060642EAC62141EA55514F
:100680004FEAC52040EA5E504FEACE2EB4F1FD0C91
:1006900088BFBCF5E06F1ED8BEF1004F08BF5FEA0F
:1006A000500E50F1000041EB045170BD06F00046C1
:1006B00046EA010140EA020081EA0301B4EB5C046E
:1006C000C2BFD4EB0C0541EA045170BD41F4801166
:1006D0004FF0000E013C00F3AB8014F1360FDEBF8B
:1006E000002001F0004170BDC4F10004203C35DA67
:1006F0000C341BDC04F11404C4F1200500FA05F3EA
:1007000020FA04F001FA05F240EA020001F000428A
:1007100021F0004110EBD37021FA04F642EB060100
:100720005EEA430E08BF20EAD37070BDC4F10C042A
:10073000C4F1200500FA04F320FA05F001FA04F2EE
:1007400040EA020001F0004110EBD37041F10001DA
:100750005EEA430E08BF20EAD37070BDC4F12005E5
:1007600000FA05F24EEA020E20FA04F301FA05F24D
:1007700043EA020321FA04F001F0004121FA04F2F5
:1007800020EA020000EBD3705EEA430E08BF20EAC5
:10079000D37070BD94F0000F0FD101F000464000FF
:1007A00041EB010111F4801F08BF013CF7D041EA81
:1007B000060195F0000F18BF704703F00046520085
:1007C00043EB030313F4801F08BF013DF7D043EA56
:1007D0000603704794EA0C0F0CEA135518BF95EA0C
:1007E0000C0F0CD050EA410618BF52EA4306D1D193
:1007F00081EA030101F000414FF0000070BD50EAB2
:10080000410606BF1046194652EA430619D094EA3B
:100810000C0F02D150EA013613D195EA0C0F05D125
:1008200052EA03361CBF104619460AD181EA030179
:1008300001F0004141F0FE4141F470014FF0000031
:1008400070BD41F0FE4141F4780170BD70B54FF0CC
:10085000FF0C4CF4E06C1CEA11541DBF1CEA13554C
:1008600094EA0C0F95EA0C0F00F0A7F8A4EB05042E
:1008700081EA030E52EA03354FEA013100F0888025
:100880004FEA03334FF0805545EA131343EA1263EE
:100890004FEA022245EA111545EA10654FEA0026A3
:1008A0000EF000419D4208BF964244F1FD0404F55C
:1008B000407402D25B084FEA3202B61A65EB0305B8
:1008C0005B084FEA32024FF480104FF4002CB6EB75
:1008D000020E75EB030E22BFB61A754640EA0C00F5
:1008E0005B084FEA3202B6EB020E75EB030E22BF35
:1008F000B61A754640EA5C005B084FEA3202B6EB76
:10090000020E75EB030E22BFB61A754640EA9C0034
:100910005B084FEA3202B6EB020E75EB030E22BF04
:10092000B61A754640EADC0055EA060E18D04FEAC2
:10093000051545EA16754FEA06164FEAC30343EA62
:1009400052734FEAC2025FEA1C1CC0D111F4801F2F
:100950000BD141EA00014FF000004FF0004CB6E728
:1009600011F4801F04BF01430020B4F1FD0C88BFC7
:10097000BCF5E06F3FF6AFAEB5EB030C04BFB6EBD2
:10098000020C5FEA500C50F1000041EB045170BDC5
:100990000EF0004E4EEA113114EB5C04C2BFD4EBF2
:1009A0000C0541EA045170BD41F480114FF0000E76
:1009B000013C90E645EA060E8DE60CEA135594EAF2
:1009C0000C0F08BF95EA0C0F3FF43BAF94EA0C0FF5
:1009D0000AD150EA01347FF434AF95EA0C0F7FF46A
:1009E00025AF104619462CE795EA0C0F06D152EABE
:1009F00003353FF4FDAE1046194622E750EA4106A2
:100A000018BF52EA43067FF4C5AE50EA41047FF4B2
:100A10000DAF52EA43057FF4EBAE12E74FEA410215
:100A2000B2F1E04324BFB3F5001CDCF1FE5C0DD94C
:100A300001F0004C4FEAC0024CEA5070B2F1004F96
:100A400040EB830008BF20F00100704711F0804F99
:100A500021D113F13872BCBF01F00040704741F45E
:100A600080114FEA5252C2F11802C2F1200C10FA62
:100A70000CF320FA02F018BF40F001004FEAC12346
:100A80004FEAD32303FA0CFC40EA0C0023FA02F3EA
:100A90004FEA4303CCE77FEA625307D150EA0133C0
:100AA0001EBF4FF0FE4040F44000704701F0004090
:100AB00040F0FE4040F40000704700BF53B94AB90F
:100AC000002908BF00281CBF4FF0FF314FF0FF3056
:100AD00000F072B9ADF1080C6DE904CE00F006F833
:100AE000DDF804E0DDE9022304B070472DE9F047AA
:100AF000089E04468846002B4BD18A42154667D98A
:100B0000B2FA82F24AB1C2F1200701FA02F320FAE6
:100B100007F7954047EA030894404FEA154E230C27
:100B2000B8FBFEF71FFA85FC0EFB178843EA084363
:100B300007FB0CF1994209D9EB1807F1FF3080F05F
:100B40001B81994240F21881023F2B445B1AA4B2E8
:100B5000B3FBFEF00EFB103344EA034400FB0CFC35
:100B6000A44509D92C1900F1FF3380F00781A44571
:100B700040F2048102382C4440EA0740A4EB0C0404
:100B800000271EB1D4400023C6E900433946BDE822
:100B9000F0878B4209D9002E00F0EB800027C6E9D0
:100BA000000138463946BDE8F087B3FA83F7002FD5
:100BB00047D18B4202D3824200F2FA80841A61EB61
:100BC000030301209846002EE0D0C6E90048DDE787
:100BD00002B9FFDEB2FA82F2002A40F08F80491B90
:100BE0004FEA154E1FFA85F80127B1FBFEFC230CD6
:100BF0000EFB1C1143EA014308FB0CF1994207D993
:100C0000EB180CF1FF3002D2994200F2CD808446FD
:100C1000591AA3B2B1FBFEF00EFB101443EA0444D0
:100C200008FB00F8A04507D92C1900F1FF3302D2C8
:100C3000A04500F2B6801846A4EB080440EA0C4038
:100C40009FE7C7F1200CBB4022FA0CFE4EEA030ED0
:100C500001FA07F420FA0CF521FA0CF34FEA1E48CA
:100C60002543B3FBF8F92C0C08FB19331FFA8EFA55
:100C700044EA034309FB0AF49C4202FA07F200FA31
:100C800007F10BD91EEB030309F1FF3080F08780D9
:100C90009C4240F28480A9F1020973441B1BADB24F
:100CA000B3FBF8F008FB103345EA034400FB0AFAF3
:100CB000A24508D91EEB040400F1FF336BD2A24514
:100CC00069D90238744440EA0940A0FB0289A4EBC8
:100CD0000A044C45C2464B4654D351D0002E69D02D
:100CE000B1EB0A0564EB030404FA0CFCFD40FC4084
:100CF0004CEA0505C6E90054002747E7C2F1200386
:100D000020FA03F7954001FA02F021FA03F34FEAC3
:100D1000154E3843010CB3FBFEF71FFA85F80EFBA6
:100D2000173341EA034107FB08F38B4204FA02F44C
:100D300007D9691807F1FF3C2FD28B422DD9023F0A
:100D40002944CB1A81B2B3FBFEF00EFB103341EA0B
:100D5000034100FB08F38B4207D9691800F1FF3CFF
:100D600017D28B4215D902382944C91A40EA0747DD
:100D70003BE73746304609E70746E7E61846FBE615
:100D80004145ABD2B8EB020A69EB0E0201381346BB
:100D9000A4E76046E9E7184695E76746D1E781464C
:100DA0007CE702382C4447E7ACF1020C2B442FE7D8
:100DB000384608E73746E9E6704700BF10B5B8B0D7
:100DC0002422002128A803F083FB002422942394EA
:100DD00024942594269488222146684603F078FBC3
:100DE000022327934FF480722A9210222B92319380
:100DF0003293012233920A2234920722359236939B
:100E0000379327A802F096F80F2322930323239306
:100E1000249425942694042122A802F077FB4223EF
:100E200000930F941494684602F0B4FD4FF40070E0
:100E300003F02CFA38B010BD70B586B006AB0822AE
:100E400003F8012D184E64240294012501950093A6
:100E50002B4610223221304600F082FD204601F060
:100E6000B3FF06AB032203F8022D02940195009311
:100E70002B460F223221304600F072FD204601F051
:100E8000A3FF06AB002203F8032D02940195009303
:100E90002B4611223221304600F062FD204601F03F
:100EA00093FF06B070BD00BF70010020000000007D
:100EB00030B583B004464C4B1B784BB34B490B7099
:100EC000494A52784A7003F0F00303EB02231B11E6
:100ED00007EE903AF8EEE77A454BC3ED007A9FEDC6
:100EE000457AF4EEC77AF1EE10FA05DD9FED427A0D
:100EF00077EEC77AC3ED007A3D4D2868FFF724FBF3
:100F000037A3D3E90023FFF777FBFFF787FD2860BE
:100F1000354B9B784BB335498B70334AD278CA70C6
:100F200003F0F00303EB02231B1107EE903AF8EEF7
:100F3000E77A324BC3ED007A9FED2E7AF4EEC77A52
:100F4000F1EE10FA05DD9FED2C7A77EEC77AC3ED4E
:100F5000007A2A4D2868FFF7F7FA21A3D3E9002386
:100F6000FFF74AFBFFF75AFD28601F4B1B794BB375
:100F70001E490B711C4A52794A7103F0F00303EBCE
:100F800002231B1107EE903AF8EEE77A1C4BC3EDF3
:100F9000007A9FED187AF4EEC77AF1EE10FA05DDCB
:100FA0009FED157A77EEC77AC3ED007A144D286865
:100FB000FFF7CAFA0AA3D3E90023FFF71DFBFFF7E7
:100FC0002DFD286006230193074B00930123022285
:100FD0003221204600F096FD03B030BDAFF3008013
:100FE0006EA301BC0512843F940000208C000020F9
:100FF0009C00002000E0FF4400008045A00000208D
:10100000A40000202DE970432DED028B88B0054629
:10101000B0EE408AB5EEC00AF1EE10FA3AD4204E96
:10102000B5EEC08AF1EE10FA36D418EE100AFFF7CA
:101030008BFA80468946FDEEC87A17EE904A17EE85
:10104000900AFFF76FFA02460B4640464946FFF703
:101050001BF9FFF7E3FCDFED137A07EE100A67EEEA
:10106000277AFDEEE77ACDED017A009433462A46E1
:101070000D4903A803F034FA03A8FFF7A9F8642385
:1010800082B203A9094801F079FD08B0BDEC028BDA
:10109000BDE87083064EC3E7B1EE488AC5E700BFDE
:1010A000404D00080050C347244D000804020020B2
:1010B000204D000830B583B001F05EFEFFF77EFEE4
:1010C00000F054F800F0A2F800F064F900F0C0F865
:1010D000FFF7B2FE06230193184B00930123002271
:1010E0003221174800F00EFD0022541CE4B2154DC9
:1010F0001549284603F0F4F92846FFF769F86423F8
:1011000082B22946114801F039FD114B93ED000AD6
:101110001048FFF777FF104B93ED000A0F48FFF7D9
:1011200071FF0F4B93ED000A0E48FFF76BFF4FF472
:101130007A7001F049FE2246D7E700BF94000020F4
:1011400070010020B8000020344D00080402002087
:101150009C000020444D0008A0000020504D0008D5
:10116000A40000205C4D00087047000010B58AB054
:10117000002405940694079408940994204BDA6C93
:1011800042F00402DA64DA6C02F004020192019A7D
:10119000DA6C42F08002DA64DA6C02F080020292C9
:1011A000029ADA6C42F00102DA64DA6C02F00102AF
:1011B0000392039ADA6C42F00202DA64DB6C03F009
:1011C00002030493049B224620214FF0904002F03A
:1011D000F7FE4FF4005305930A4B0693079405A9B5
:1011E000094802F003FE2023059301230693079488
:1011F000089405A94FF0904002F0F8FD0AB010BD28
:1012000000100240000021100008004800B583B023
:101210000E4B9A6C42F001029A649B6C03F001033E
:101220000193019B00221146102003F089F8102041
:1012300003F0B8F800221146112003F081F81120C4
:1012400003F0B0F803B05DF804FB00BF00100240EB
:1012500008B51248124B0360124B436000238360B1
:101260000122C260036143618361C361036200F0D4
:1012700019FB50B90021094801F088F940B9002153
:10128000064801F0B1F930B908BDFFF76DFFF1E78D
:10129000FFF76AFFF3E7FFF767FFF5E7700100204C
:1012A00000540040EC9C901070B588B0002303936C
:1012B000049305930693079302682F4B9A4201D03B
:1012C00008B070BD04462D4DEB6C43F00203EB6497
:1012D000EB6C03F002030193019BC02303931223E1
:1012E000049301230593032606960423079303A979
:1012F000234802F07BFDAB6D43F40013AB65AB6D8F
:1013000003F400130293029B1E481F4B03604660C8
:1013100000238360C3608022026143618361C361F3
:10132000036202F06BFE00BB164BE3639C6217483E
:10133000174B036003234360102383600023C360C3
:101340008022026143618361C361036202F056FE41
:1013500070B90E4BA3639C62002211461F2002F05D
:10136000EFFF1F2003F01EF8AAE7FFF7FDFEDBE703
:10137000FFF7FAFEEDE700BF005400400010024006
:1013800000040048BC010020800002402801002029
:101390006C00024008B50B480B4B03604FF4E1337F
:1013A000436000238360C36003610C224261836158
:1013B000C3610362436201F084FC00B908BDFFF71A
:1013C000D3FEFBE7040200200044004000B589B0D2
:1013D0000023039304930593069307930268144B29
:1013E0009A4202D009B05DF804FB03F5E6339A6D2A
:1013F00042F400329A659A6D02F400320192019A29
:10140000DA6C42F00102DA64DB6C03F00103029350
:10141000029B0C23039302230493032306930723C5
:10142000079303A94FF0904002F0E0FCDAE700BF19
:10143000004400407047FEE7FEE7FEE7FEE7704726
:101440007047704708B501F0ADFC08BD08B502480B
:1014500002F0B3FE08BD00BF2801002008B5024815
:1014600002F0ABFE08BD00BFBC01002008B5024879
:1014700000F010FC08BD00BF7001002082B00A4BD4
:101480001A6E42F001021A661A6E02F00102009210
:10149000009A9A6D42F080529A659B6D03F08053DA
:1014A0000193019B02B070470010024003689A69E3
:1014B00012F0020F01D000229A6203689A6912F0BA
:1014C000010F03D19A6942F001029A61704770B42A
:1014D000039D066870686C0D04F4806444F07F74AA
:1014E00044F4583444F47F7444F0030420EA0400C4
:1014F000C1F3090141EA02411943294308437060DD
:1015000070BC7047436B1D4A934219D01C4A9342EA
:1015100016D011F0040F2CD1002311F0010F01D0CF
:1015200043F0F20311F0020F01D043F0F40301F095
:10153000120112291FD0026811680B431360704713
:1015400011F0040F0DD1002301F01102112A0AD06D
:1015500001F01201122909D01229ECD143F0400305
:10156000E9E7B823F0E743F09003F1E743F0200305
:10157000F2E7B823D1E743F02003DCE7AF2300080C
:10158000B722000811F0010F09D090F8413003F0A4
:101590002803282B01D0F22302E0422300E000239D
:1015A00011F0020F2CD010B443F0440490F8412005
:1015B00002F02802282A18D043F0F40311F0040F97
:1015C00001D043F0B80301F01102112A0FD001F04D
:1015D000120112290ED012290FD001680A6822EADE
:1015E00003030B605DF8044B70472346E6E743F0C6
:1015F0009003ECE743F02003EDE743F04003ECE712
:1016000011F0040F01D043F0B80301F01102112AC8
:101610000BD001F0120112290AD012290BD0016857
:101620000A6822EA03030B60704743F09003F0E777
:1016300043F02003F1E743F04003F0E770B50446C0
:101640000D46164603689B6913F0100F1CD02368E3
:101650009A6912F0200F19D1B5F1FF3FF7D001F0D0
:10166000ADFB801B854201D3002DF0D1636C43F0AC
:1016700020036364202384F84130002384F842303F
:1016800084F84030012070BD002070BD1022DA6166
:1016900023682025DD612046FFF708FF2268536894
:1016A00023F0FF7323F48B3323F4FF7323F0010340
:1016B0005360636C43F00403636484F84150002377
:1016C00084F8423084F84030012070BD70B5044683
:1016D0000D46164623689B6913F0020F1DD1324652
:1016E00029462046FFF7AAFFC8B9B5F1FF3FF1D060
:1016F00001F064FB801B854201D3002DEAD1636CAD
:1017000043F020036364202384F84130002384F8ED
:10171000423084F84030012070BD002070BD0120AF
:1017200070BDF8B505460F4616461C462B689B69EA
:1017300037EA03030CBF01230023B34218D1B4F1ED
:10174000FF3FF3D001F03AFB069BC01A844201D35D
:10175000002CEBD16B6C43F020036B64202385F8E5
:101760004130002385F8423085F840300120F8BD33
:101770000020F8BD70B582B0044615461E46184BD1
:1017800000934FF08073F2B2FFF7A1FE079A06991B
:101790002046FFF79BFFE8B9012E0CD023682A0AE8
:1017A0009A62079A06992046FFF790FFB0B923681E
:1017B000EDB29D6202E02368EDB29D62079B00934B
:1017C000069B002280212046FFF7ABFF034610B1A5
:1017D000012300E00123184602B070BD0123FAE79F
:1017E0000020008070B582B0044615461E46184B96
:1017F00000930023F2B2FFF76AFE079A069920468B
:10180000FFF764FFE8B9012E0CD023682A0A9A6218
:10181000079A06992046FFF759FFB0B92368EDB241
:101820009D6202E02368EDB29D62079B0093069BD8
:10183000002240212046FFF774FF034610B1012328
:1018400000E00123184602B070BD0123FAE700BF93
:101850000020008070B505460C4616462B689B6933
:1018600013F0200F1AD1324621462846FFF7E6FE34
:10187000B0B901F0A3FA801B844201D3002CEDD152
:101880006B6C43F020036B64202385F84130002308
:1018900085F8423085F84030012070BD002070BDD1
:1018A000012070BD002859D010B5044690F8413091
:1018B000002B43D0242384F841302268136823F09E
:1018C000010313602268636823F070631361226868
:1018D000936823F400439360E368012B33D02268BC
:1018E000A36843F404439360E368022B31D0226879
:1018F000536843F0007343F4004353602268D36895
:1019000023F40043D3602268236961690B43A16912
:1019100043EA0123D3602268E369216A0B43136021
:101920002268136843F001031360002060642023E1
:1019300084F84130206384F8420010BD80F84030C4
:10194000FFF7B2FCB6E72268A36843F40043936054
:10195000CAE723684FF400625A60C8E70120704765
:101960002DE9F04782B0BDF82C5090F84140E4B228
:10197000202C04D00223184602B0BDE8F0870A9C50
:1019800034B12DB190F84040012C06D10223F2E78A
:101990004FF4007343640123EDE7984691460E46E9
:1019A00004464FF0010A80F840A001F007FA07460C
:1019B0000090192352464FF400412046FFF7B1FE34
:1019C00008B10123D7E7212384F84130402384F86C
:1019D0004230002363640A9A6262658563630197FB
:1019E0000C9B009343464A4631462046FFF7C2FE11
:1019F00070B9638D9BB2FF2B0FD9FF222285002384
:101A000000934FF0807331462046FFF760FD21E0E0
:101A1000002384F840305346ADE7628D92B22285B0
:101A2000002300934FF00073D2B231462046FFF7F7
:101A30004EFD0FE0628D92B22285002300934FF09D
:101A40000073D2B231462046FFF741FD638D9BB251
:101A5000002B33D03A460C992046FFF737FE00287A
:101A600049D12368626A12789A62636A01336362B9
:101A7000638D9BB2013B9BB26385238D013B9BB27F
:101A80002385628D92B2002AE0D0002BDED1009730
:101A90000C9B002280212046FFF743FE68BB638D2C
:101AA0009BB2FF2BC6D9FF222285002300934FF063
:101AB000807331462046FFF70AFDC7E73A460C9986
:101AC0002046FFF7C7FE0346C8B922682021D1612E
:101AD0002068426822F0FF7222F48B3222F4FF72F7
:101AE00022F00102426084F84110002284F8422072
:101AF00084F840203FE701233DE701233BE7012332
:101B000039E700002DE9F04182B0BDF8245090F88B
:101B10004140E4B2202C04D00224204602B0BDE8AB
:101B2000F081089C3CB135B10468A46914F4004FFD
:101B300006D00224F1E74FF4007343640124ECE77C
:101B400090F84040012C01D10224E6E71F461446DC
:101B50000E468046012380F8403001F02FF9222301
:101B600088F84130402388F842300023C8F84430D8
:101B7000089BC8F82430A8F82A50414BC8F82C30EC
:101B8000404BC8F83430B8F82A309BB2FF2B3AD912
:101B9000FF23A8F828304FF0807501901923009397
:101BA0003B46224631464046FFF71CFE90BBD8F824
:101BB0003C30A3B3344ADA62D8F83C30334A5A6333
:101BC000D8F83C2000231363D8F83C209363D8F85E
:101BD0000010B8F82830089A2431D8F83C0002F0F8
:101BE00089FA044658B3202388F84130002288F847
:101BF0004220D8F8443043F01003C8F8443088F845
:101C00004020012489E7B8F82A30A8F828304FF09E
:101C10000075C2E7002388F8403001247DE72023C7
:101C200088F84130002288F84220D8F8443043F048
:101C30008003C8F8443088F8402001246DE798F804
:101C40002820134B00932B4631464046FFF73FFCBC
:101C5000B8F82A309BB2B8F828209B1A9BB2A8F893
:101C60002A30002388F8403011214046FFF74AFC13
:101C7000D8F80020136843F4004313604DE700BF19
:101C80000000FFFFAF23000809250008F324000827
:101C90000024008008B5036899691A68436B03B192
:101CA000984708BD7047704738B50446002380F850
:101CB000423090F84130DBB2212B0FD0202380F846
:101CC000413012230363002545630221FFF75AFCCC
:101CD00084F840502046FFF7E6FF38BD202380F807
:101CE000413011230363002545630121FFF74AFCBE
:101CF00084F840502046FFF7D5FF38BD7047704745
:101D000010B50446002380F8423090F84130DBB231
:101D1000292B05D090F84130DBB22A2B0FD010BD13
:101D2000282380F84130212303630121FFF72AFC97
:101D3000002384F840302046FFF7E0FF10BD282341
:101D400080F84130222303630221FFF71BFC0023AC
:101D500084F840302046FFF7D2FFE0E77047F8B53F
:101D600090F8413003F02803282B06D0036808229E
:101D7000DA61002380F84030F8BD044603689E69AC
:101D8000C6F300469A69120C02F0FE059A68C2F387
:101D90000902DF6807F0FE07C168022921D185EA40
:101DA000D21515F0060F10D1816C01318164816C60
:101DB0000229E1D1002181640820D86184F8401013
:101DC00031462046FFF7CAFFF8BD0421FFF7DAFBD2
:101DD000002384F840303A4631462046FFF7BEFFE4
:101DE000F8BD0421FFF7CEFB002384F840302A46DB
:101DF00031462046FFF7B2FFF8BD704710B50446E4
:101E0000174BC36200230363202280F8412080F82F
:101E10004230436311F0040F13D0436A0268526AE0
:101E20001A70436A01334362038D53B1013B03854A
:101E3000438D9BB2013B9BB24385436C43F004034B
:101E4000436407212046FFF79DFB23681022DA61D7
:101E5000002384F840302046FFF7CFFF10BD00BFBD
:101E60000000FFFF704770477047000010B5044640
:101E700090F84130002280F842203648E0626285C6
:101E8000626C11436164283BDBB2022B1FD8032133
:101E90002046FFF777FB282384F841300023236393
:101EA0002D4B636323681A6812F4804F23D01A689D
:101EB00022F480421A60A36B43B1284A9A6300233C
:101EC00084F84030A06B02F050F980B910BD0721B2
:101ED0002046FFF757FB94F84130DBB2602B02D06D
:101EE000202384F84130002323636363DAE7A06B87
:101EF000836B984710BD1A6812F4004F14D01A680B
:101F000022F400421A60E36B002BDFD0134A9A637D
:101F1000002384F84030E06B02F027F90028D5D088
:101F2000E06B836B984710BD94F84130DBB2602BB7
:101F300006D0002384F840302046FFF794FFC5E721
:101F4000202384F84130002384F840302046FFF7F6
:101F50008BFF10BD0000FFFF8120000863250008F3
:101F600070B504460D4603681E682022DA61072119
:101F7000FFF708FB2268536843F40043536022686C
:101F8000536823F0FF7323F48B3323F4FF7323F0A0
:101F9000010353602046FFF789FA16F4804F3BD0C7
:101FA000A36B1BB11B685B689BB2638515F0040FC4
:101FB00011D025F00405636A2268526A1A70636AB8
:101FC00001336362238D33B1013B2385638D9BB263
:101FD000013B9BB26385638D9BB21BB1636C43F085
:101FE000040363640023236384F842306363636CF7
:101FF000EBB9E36A13F5803F27D194F84130DBB2A7
:10200000222B31D0202384F84130002384F8403043
:102010002046FFF773FE70BD16F4004FC6D0E36B89
:10202000002BC3D01B685B689BB26385BEE7616C05
:102030002046FFF71BFF94F84130DBB2282BEAD192
:1020400029462046FFF7DAFE70BD2046FFF758FE0E
:102050000A4BE362202384F84130002384F84030A7
:102060002046FFF7CAFE70BD202384F841300023CC
:1020700084F840302046FFF742FE70BD0000FFFFAD
:1020800070B51646C26A90F84030012B00F09F8070
:1020900004460D46012380F8403011F0100F3FD068
:1020A00016F0100F3CD0438D9BB24BBB90F84130E3
:1020B000DBB2282B11D094F84130DBB2292B12D09F
:1020C00023681022DA6115F0200F02D016F0200FDD
:1020D00078D1002084F8400070BDB2F1007FEAD1D1
:1020E000FFF78CFEEFE712F5803FE9D0236810225E
:1020F000DA612046FFF7DAF92046FFF701FEE2E752
:1021000003681021D961436C43F00403436412B1A6
:10211000B2F1807FD7D1616C2046FFF7A7FED2E7EE
:1021200015F0040F21D016F0040F1ED0638D9BB262
:1021300083B125F00405636A2168496A1970636AEE
:1021400001336362238D013B2385638D9BB2013B89
:102150009BB26385638D9BB2002BB4D112F5803F97
:10216000B1D02046FFF7CCFDADE715F0080F02D047
:1021700016F0080F18D115F0020FA4D016F0020FB8
:10218000A1D0638D9BB2A3B12368626A12789A6270
:10219000636A01336362638D9BB2013B9BB26385CB
:1021A000238D013B23858EE729462046FFF7D7FD87
:1021B00089E7B2F1807F01D0002A84D12046FFF761
:1021C0009FFD80E729462046FFF7CAFE81E70220EF
:1021D00070BD10B5044603682022DA6102685368B6
:1021E00023F0FF7323F48B3323F4FF7323F00103F5
:1021F0005360002303634363A3F58033C36211F08C
:10220000100F06D003681022DA61436C43F0040318
:1022100043642046FFF74AF903212046FFF7B2F94D
:10222000626C94F84130DBB2602B0BD052B994F859
:102230004130DBB2212B0AD094F84130DBB2222BA3
:102240001FD010BD616C2046FFF710FE10BD20238B
:1022500084F8413094F84230DBB2402B08D00023A0
:1022600084F8423084F840302046FFF71BFD10BD53
:10227000002384F8423084F840302046FFF7F2FD16
:1022800010BD202384F8413094F84230DBB2402B5B
:1022900008D0002384F8423084F840302046FFF70D
:1022A00002FDCEE7002384F8423084F84030204617
:1022B000FEF7FEFD10BD38B5C56A90F84030012B21
:1022C00073D00446012380F8403011F0100F54D031
:1022D00012F0100F51D012F4404F4AD0C36B3BB1F3
:1022E00012F4004F06D01B685B68F3B1002002E0D7
:1022F000002000E00020A36B33B112F4804F03D024
:102300001B685B6803B9012088B923681022DA6171
:10231000636C43F00403636415B1B5F1807F38D179
:10232000616C2046FFF7A2FD33E00120E3E794F85B
:102330004130DBB2282B08D094F84130DBB2292B96
:102340000AD023681022DA6123E0B5F1007FF3D1CF
:102350002046FFF753FD1CE015F5803FF1D02368C0
:102360001022DA612046FFF7A1F82046FFF7C8FCEB
:102370000FE003681022DA610BE011F0080F02D0C1
:1023800012F0080F09D111F0200F02D012F0200F27
:1023900007D1002084F8400038BD2046FFF7DFFC5D
:1023A000F7E72046FFF7DCFDF3E7022038BD90F8A1
:1023B0004030012B00F09B8010B582B00446012311
:1023C00080F8403011F0100F02D012F0100F32D10F
:1023D00011F0800F5CD012F0400F59D022681368C2
:1023E00023F040031360638D9BB2002B42D023681F
:1023F0005968C1F30901638D9BB2FF2B29D9FF23D3
:1024000023854FF0807394F8282000200090204608
:10241000FFF75DF8638D9BB2228D9B1A9BB263859B
:1024200094F84130DBB2222B1ED02268136843F4AB
:102430008043136052E003681022DA61436C43F07A
:10244000040343641221FFF75DF82046FFF72EF8DE
:1024500044E0638D2385E36A13F5803F01D0E36A8E
:10246000D1E74FF00073CEE72268136843F40043CE
:10247000136033E023685B6813F0007F03D12046CC
:10248000FFF712FC2AE040212046FFF7EFFC25E091
:1024900011F0400F1CD012F0400F19D0638D9BB289
:1024A0008BB923685A6812F0007F17D1E26A12F5DF
:1024B000803F03D02046FFF7F7FB0FE05A6842F455
:1024C00080425A600AE040212046FFF7CFFC05E039
:1024D00011F0200F02D012F0200F04D1002084F858
:1024E000400002B010BD2046FFF773FEF6E7022061
:1024F000704708B5806A0268536843F4004353602C
:102500001021FFF7B3FC08BD10B5846A2268136878
:1025100023F400431360638D9BB2ABB1238D626AD9
:102520001A446262638D9BB2FF2B12D9FF2323856D
:102530002168238D2431E06B01F0DCFD60B91221AC
:102540002046FEF7DFFF10BD12212046FEF7DAFF1E
:1025500010BD638D2385EBE710212046FFF786FC35
:1025600010BD08B5806A826B00239363C26B9363CE
:1025700090F84130DBB2602B02D0FFF774FC08BD4D
:10258000202380F84130FFF76FFC08BD90F8413000
:10259000DBB2202B01D00220704790F84030012B95
:1025A00020D0012380F84030242380F84130026895
:1025B000136823F0010313600268136823F4805347
:1025C000136002681368194311600268136843F0CE
:1025D00001031360202380F84130002380F840304D
:1025E000184670470220704790F84130DBB2202B2C
:1025F00001D00220704790F84030012B1ED00123FB
:1026000080F84030242380F841300268136823F0BA
:10261000010313600268136823F4706343EA012125
:1026200011600268136843F001031360202380F8EF
:102630004130002380F84030184670470220704730
:102640002DE9784B044601688368026913434269A7
:102650001343C269134308689F4A024013430B6047
:102660002268536823F44053E1680B435360A36925
:1026700022689A498A4201D0216A0B43916821F469
:1026800030610B4393602368954A934227D0954A63
:10269000934238D0944A93424ED0944A934261D0A8
:1026A000934A934274D08D4A934200F08A80102559
:1026B0008A4A934200F0AA80E369B3F5004F00F024
:1026C0002C81082D00F2B781DFE815F076018D012D
:1026D0009701B501A201B501B501B501AC0102F543
:1026E0005842D2F8882002F00302032A09D8DFE812
:1026F00002F0020481060125DAE70425D8E708255F
:10270000D6E71025D4E702F5E632D2F8882002F0A9
:102710000C020C2A0ED8DFE802F0070D0D0D090D92
:102720000D0D6F0D0D0D0B000025C1E70425BFE752
:102730000825BDE71025BBE702F5E432D2F8882072
:1027400002F03002102A09D005D9202A56D0302AAA
:1027500006D10825ACE71AB90025A9E70425A7E7A3
:102760001025A5E702F5E232D2F8882002F0C00277
:10277000402A09D005D9802A42D0C02A06D108258E
:1027800096E71AB9002593E7042591E710258FE70E
:1027900002F5E032D2F8882002F44072B2F5807F70
:1027A0000BD007D9B2F5007F2CD0B2F5407F06D10F
:1027B00008257DE71AB900257AE7042578E7102572
:1027C00076E702F5C832D2F8882002F44062B2F50A
:1027D000806F0BD007D9B2F5006F15D0B2F5406FFE
:1027E00006D1082564E71AB9002561E704255FE7EB
:1027F00010255DE702255BE7022559E7022557E72B
:10280000022555E7022553E7022551E7082D11D887
:10281000DFE805F0081005100C1010101300354803
:1028200000260DE000F024FF002609E000F028FB60
:10283000002605E00020012602E04FF400400026BB
:10284000002800F0CA80626802EB42039842C0F0A0
:10285000F580B0EB023F00F2F380082D5AD8DFE894
:1028600005F005591F59295959594F0000F000FF2B
:1028700000234FEA10694FEA00286268500818EBFD
:10288000000B49F1000C58466146FEF717F9A0F518
:102890004072194B9A4200F2D5802368D8609CE0C0
:1028A0005508002315480021401941F10001FEF7A9
:1028B00005F9ECE700F0E4FA00234FEA10694FEA6B
:1028C00000286268500818EB000B49F1000C5846CC
:1028D0006146FEF7F3F8DAE7F369FFEF00800040A6
:1028E000003801400044004000480040004C0040D7
:1028F000005000400024F400FFFC0F00000024F40E
:1029000050080021002310F5000041F10001FEF7FE
:10291000D5F8BCE701260020B9E7082D49D8DFE843
:1029200005F0051E2948344848483F0000F0A0FE45
:102930006268530803EB4003B3FBF2F39BB200263B
:10294000A3F110014FF6EF7291427DD89AB222F0B6
:102950000F02C3F3420313432268D3603DE000F04B
:1029600099FE6268530803EB4003B3FBF2F39BB29A
:102970000026E5E76268530803F1F47303F590431A
:10298000B3FBF2F39BB20026DAE700F079FA626853
:10299000530803EB4003B3FBF2F39BB20026CFE7EF
:1029A0006268530803F58033B3FBF2F39BB2002651
:1029B000C6E701260023C3E700F05AFE636800EB78
:1029C0005300B0FBF3F080B20026A0F110024FF6E6
:1029D000EF739A423AD82368D8600023236663666F
:1029E0003046BDE8788B00F055FE636800EB53007D
:1029F000B0FBF3F080B20026E7E76368580800F503
:102A0000740000F51050B0FBF3F080B20026DCE754
:102A100000F036FA636800EB5300B0FBF3F080B2CD
:102A20000026D2E76368580800F50040B0FBF3F0D9
:102A300080B20026C9E701260020C6E70126CCE7C0
:102A40000126CAE70126C8E70126C6E70126C4E732
:102A5000436A13F0010F06D00268536823F4003371
:102A6000816A0B435360436A13F0020F06D0026879
:102A7000536823F48033C16A0B435360436A13F0F5
:102A8000040F06D00268536823F48023016B0B43C4
:102A90005360436A13F0080F06D00268536823F4AA
:102AA0000043416B0B435360436A13F0100F06D091
:102AB0000268936823F48053816B0B439360436AED
:102AC00013F0200F06D00268936823F40053C16B03
:102AD0000B439360436A13F0400F0AD002685368B7
:102AE00023F48013016C0B435360036CB3F5801F18
:102AF0000BD0436A13F0800F06D00268536823F4AA
:102B00000023816C0B43536070470268536823F4C1
:102B1000C003416C0B435360EBE72DE9F0410546E0
:102B20000F4616469846069C2B68DB6937EA030376
:102B30000CBF01230023B3421DD1B4F1FF3FF3D0FA
:102B400000F03CF9A0EB0800844201D3002CEBD14B
:102B50002A68136823F4D07313602A68936823F0FB
:102B60000103936020236B67AB67002385F8703007
:102B70000320BDE8F0810020BDE8F0812DE9F0419F
:102B800082B01E46436F202B04D00223184602B0A9
:102B9000BDE8F08104460D469046002955D0002A34
:102BA00055D090F87030012B01D10223EEE70123BC
:102BB00080F870300023C3672123436700F0FEF8DC
:102BC0000746A4F85080A4F85280A368B3F5805F4C
:102BD00002D04FF0000814E0236913B14FF0000851
:102BE0000FE0A84600250CE0226838F8023BC3F34A
:102BF00008031385B4F852309BB2013B9BB2A4F892
:102C00005230B4F852309BB273B100963B4600226A
:102C100080212046FFF781FFD8B9002DE4D023683A
:102C200015F8012B1A85E5E700963B460022402166
:102C30002046FFF772FF034608B10323A6E72022D0
:102C40006267002284F87020A0E701239EE7012339
:102C50009CE703239AE730B583B004460023C3679B
:102C600000F0ACF8054623681B6813F0080F0CD180
:102C700023681B6813F0040F15D120236367A36733
:102C8000002084F8700003B030BD6FF07E430093E5
:102C9000034600224FF400112046FFF73EFF0028B4
:102CA000E6D00320EFE76FF07E4300932B4600222F
:102CB0004FF480012046FFF730FF0028DDD00320CD
:102CC000E1E768B310B50446436F03B32423636799
:102CD0002268136823F0010313602046FFF7B0FC5D
:102CE00001281FD0636ABBB92268536823F490435C
:102CF00053602268936823F02A0393602268136864
:102D000043F0010313602046FFF7A5FF10BD80F8D4
:102D10007030FEF75BFBD9E72046FFF799FEE3E74B
:102D20000120704710BD0000104B1B680BB901203B
:102D3000704710B504464FF47A70B0FBF3F30C4AB9
:102D40001068B0FBF3F001F03BFB68B90F2C01D920
:102D5000012010BD002221464FF0FF3001F0F0FAB3
:102D6000044B1C60002010BD012010BD000000209D
:102D7000080000200400002010B5094A136843F43D
:102D800080731360032001F0C9FA0020FFF7CCFF25
:102D900010B10124204610BD0446FEF76FFBF9E791
:102DA00000200240034A1368034909680B4413607A
:102DB000704700BF8402002000000020014B18680B
:102DC000704700BF8402002038B50446FFF7F6FFC5
:102DD0000546B4F1FF3F02D0044B1B681C44FFF7CB
:102DE000EDFF401B8442FAD838BD00BF0000002030
:102DF00030B583B00546204B9B6D13F0805F0BD040
:102E000001F03CFAB0F5007F17D0802D1FD82DD0EF
:102E1000702D2DD000211BE0174CA36D43F0805383
:102E2000A365A36D03F080530193019B01F026FA83
:102E3000A36D23F08053A365E4E7802D03D9A02D73
:102E400003D9022104E0002102E0012100E0032176
:102E50000A4A136823F007030B431360136803F057
:102E60000703994206D0012003B030BD0221EFE7ED
:102E70000121EDE70020F7E70010024000200240AA
:102E8000284A9368D26802F0030213F00C030AD0B8
:102E90000C2B06D0042B1FD0082B20D0002002467C
:102EA00010E0012AF6D11F4A126812F0080F0CD167
:102EB0001C4AD2F89420C2F303221B4951F8222065
:102EC00043B100200C2B0DD07047164A1268C2F394
:102ED0000312F2E71046F5E714480022F2E714481F
:102EE0000022EFE70F4BDB6803F00303022B15D042
:102EF000032B15D00B49C868C0F30210431CC868E7
:102F0000C0F3062000FB02F0B0FBF3F0CB68C3F384
:102F1000416301335B00B0FBF3F0D5E7034AE9E717
:102F2000034AE7E700100240804D00080024F40047
:102F300000127A00002800F0CD82F0B583B004467C
:102F4000AB4B9D6805F00C05DE6806F003060368D0
:102F500013F0100F7ED0E5B10C2D18D0A369002B13
:102F600000F0B580A24A136843F001031360FFF735
:102F700025FF07469E4B1B6813F0020F40F094801C
:102F8000FFF71CFFC01B0228F4D90323B7E2012E70
:102F9000E4D1974B1B6813F0020F03D0A369002BF9
:102FA00000F09B82206A924B1B6813F0080F1DD023
:102FB0008F4B1B6803F0F00383421ED2FFF718FF0C
:102FC000002840F093828A4B1A6842F008021A6087
:102FD0001A6822F0F002216A0A431A605A6822F441
:102FE0007F42E16942EA01225A601EE0804BD3F839
:102FF00094301B0903F0F003DEE77D4B1A6842F0C2
:1030000008021A601A6822F0F002216A0A431A6064
:103010005A6822F47F42E16942EA01225A60206A3A
:10302000FFF7E6FE002840F06382FFF729FF704BB0
:103030009B68C3F303136F4AD35C03F01F03D840AC
:103040006D4B18606D4B1868FFF76EFE0346002845
:1030500040F05582236813F0010F57D0082D4CD053
:103060000C2D48D06368B3F5803F6ED0B3F5A02F28
:1030700071D05F4B1A6822F480321A601A6822F409
:1030800080221A606368002B72D0FFF797FE074614
:10309000574B1B6813F4003F38D1FFF78FFEC01B5E
:1030A0006428F5D903232AE2514B1A6842F008023A
:1030B0001A601A6822F0F002216A0A431A605A68FC
:1030C00022F47F42E16942EA01225A60C2E7484A9B
:1030D000136823F001031360FFF770FE0746444BAB
:1030E0001B6813F0020FB5D0FFF768FEC01B022863
:1030F000F5D9032303E2032EB4D13D4B1B6813F42F
:10310000003F03D06368002B00F0F481236813F0C4
:10311000020F4FD0042D3CD00C2D38D0E368002B8B
:1031200077D0334A136843F480731360FFF746FE89
:1031300006462F4B1B6813F4806F61D1FFF73EFEEC
:10314000801B0228F5D90323D9E1294A136843F4E7
:103150008033136096E703F18043A3F53C331A688C
:1031600042F480221A601A6842F480321A6089E7B9
:10317000FFF724FE07461E4B1B6813F4003FC5D023
:10318000FFF71CFEC01B6428F5D90323B7E1022E0C
:10319000C4D1174B1B6813F4806F03D0E368002B76
:1031A00000F0AA81124A536823F0F853216943EAD8
:1031B00001635360236813F0080F55D06369002B37
:1031C0003BD00B4AD2F8943043F00103C2F894305C
:1031D000FFF7F4FD0646064BD3F8943013F0020FC8
:1031E00042D1FFF7EBFD801B0228F4D9032386E1CF
:1031F00000100240684D0008080000200400002074
:10320000B74A536823F0F853216943EA01635360D6
:10321000D0E7B34A136823F480731360FFF7CEFD41
:103220000646AF4B1B6813F4806FC3D0FFF7C6FD93
:10323000801B0228F5D9032361E1A94AD2F8943012
:1032400023F00103C2F89430FFF7B8FD0646A44B03
:10325000D3F8943013F0020F06D0FFF7AFFD801BB8
:103260000228F4D903234AE1236813F0040F7AD02B
:103270009B4B9B6D13F0805F36D1994B9A6D42F05A
:1032800080529A659B6D03F080530193019B012648
:10329000944B1B6813F4807F28D0A368012B39D08E
:1032A000052B3FD08E4BD3F8902022F00102C3F8BB
:1032B0009020D3F8902022F00402C3F89020A36855
:1032C000002B3DD0FFF77AFD0746854BD3F89030B1
:1032D00013F0020F46D1FFF771FDC01B41F2883396
:1032E0009842F2D903230AE10026D1E77D4A136808
:1032F00043F480731360FFF761FD0746794B1B6849
:1033000013F4807FC9D1FFF759FDC01B0228F5D9FE
:103310000323F4E0724AD2F8903043F00103C2F87C
:103320009030CCE76E4BD3F8902042F00402C3F803
:103330009020D3F8902042F00102C3F89020BEE71D
:10334000FFF73CFD0746664BD3F8903013F0020FB1
:1033500008D0FFF733FDC01B41F288339842F2D901
:103360000323CCE05EBBA36A002B00F0C7800C2DCA
:1033700076D0022B29D05A4B1A6822F080721A603C
:103380001B6813F0205F04D1554AD36823F0030370
:10339000D360534AD36823F0887323F48033D36017
:1033A000FFF70CFD04464E4B1B6813F0007F55D011
:1033B000FFF704FD001B0228F5D903239FE0484ACC
:1033C000936D23F080539365CDE7454A136823F04E
:1033D00080731360FFF7F2FC0546414B1B6813F046
:1033E000007F06D0FFF7EAFC401B0228F5D9032333
:1033F00085E03B4AD3683C491940E36A206B0138B9
:1034000043EA0013606B43EA0023E06B4008013895
:1034100043EA4053206C4008013843EA4063A06B04
:10342000000943EA40430B43D360136843F08073C1
:103430001360D36843F08073D360FFF7BFFC04468A
:10344000274B1B6813F0007F06D1FFF7B7FC001B6A
:103450000228F5D9032352E0002350E000234EE078
:10346000012B4FD01E4BDB6803F00301E26A91424F
:1034700001D0012343E003F07002216B0139B2EB6C
:10348000011F01D001233AE003F4FE42616BB2EB6D
:10349000012F01D0012332E003F40031A26B073A7F
:1034A00018BF0122914201D0012328E003F4C0019A
:1034B000E26B5208013AB1EB425F01D001231EE0FA
:1034C00003F0C063226C5208013AB3EB426F1BD089
:1034D000012314E001231846704701230FE000BFC9
:1034E00000100240007000408C809DF9012306E02E
:1034F000012304E0012302E0012300E00023184639
:1035000003B0F0BD0123FAE70023F8E7002800F03C
:103510009B8070B504464E4B1B6803F007038B423B
:103520000CD24B4A136823F007030B431360136854
:1035300003F00703994201D0012070BD0D462368B6
:1035400013F0010F39D06368032B09D0022B26D06A
:1035500063BB404A126812F0020F06D1012070BD11
:103560003C4A126812F0007F70D03A498A6822F013
:10357000030213438B60FFF721FC0646354B9B6823
:1035800003F00C036268B3EB820F16D0FFF716FC52
:10359000801B41F288339842F0D9032070BD2D4A38
:1035A000126812F4003FE0D1012070BD294A126870
:1035B00012F4806FD9D1012070BD236813F0020F7F
:1035C00006D0244A936823F0F003A1680B4393606C
:1035D0001F4B1B6803F007039D420CD21C4A136863
:1035E00023F007032B431360136803F007039D4286
:1035F00001D0012070BD236813F0040F06D0154AD6
:10360000936823F4E063E1680B439360236813F04D
:10361000080F07D00F4A936823F46053216943EAE7
:10362000C1039360FFF72CFC0A4B9B68C3F30313A1
:10363000094AD35C03F01F03D840084B1860084BBD
:103640001868FFF771FB70BD01207047012070BD45
:103650000020024000100240684D000808000020D1
:1036600004000020014B1868704700BF08000020CC
:1036700008B5FFF7F7FF054B9B68C3F30223044A25
:10368000D35C03F01F03D84008BD00BF0010024008
:10369000784D000808B5FFF7E5FF054B9B68C3F3BD
:1036A000C223044AD35C03F01F03D84008BD00BF07
:1036B00000100240784D0008F8B55E4BDB6813F04F
:1036C000030F19D05B4BDB6803F0030302689342DE
:1036D00004D00124002C48D02046F8BD002A42D056
:1036E000544BDB68C3F3021301334268934201D0A9
:1036F0000124EFE70024EDE70368022B18D0032B29
:103700001DD0012B0DD00124002CE3D1494EF268CD
:1037100022F073024568013D43EA05131343F36049
:10372000D8E7444A126812F0020F14D00024EBE7E5
:10373000404A126812F4806F0FD00024E4E73D4A3B
:10374000126812F4003F0AD13A4A126812F4802F2C
:1037500007D00024D8E70124D6E70124D4E70024C9
:10376000D2E70124D0E70124B4E70F460546314AE9
:10377000136823F080631360FFF720FB06462D4B90
:103780001B6813F0006F05D0FFF718FB801B0228A1
:10379000F5D90324002C9FD14FBB26490B6923F494
:1037A0001F3323F44073A868EA681209520442EAFE
:1037B000002213430B611F4A136843F080631360B8
:1037C000FFF7FCFA06461B4B1B6813F0006F05D190
:1037D000FFF7F4FA801B0228F5D90324002C7FF4AC
:1037E0007BAF144A1369A9690B43136174E7012F76
:1037F0000FD01048026922F0C06222F4FE42A9688C
:103800006B695B08013B5B0643EA012313430361D9
:10381000D1E70848026922F4C00222F4FE42A968F6
:103820002B695B08013B5B0543EA012313430361FA
:10383000C1E700BF00100240F8B5554BDB6813F03C
:10384000030F19D0524BDB6803F003030268934265
:1038500004D00124002C48D02046F8BD002A42D0D4
:103860004B4BDB68C3F3021301334268934201D030
:103870000124EFE70024EDE70368022B18D0032BA7
:103880001DD0012B0DD00124002CE3D1404EF26855
:1038900022F073024568013D43EA05131343F360C8
:1038A000D8E73B4A126812F0020F14D00024EBE76D
:1038B000374A126812F4806F0FD00024E4E7344ACC
:1038C000126812F4003F0AD1314A126812F4802FB4
:1038D00007D00024D8E70124D6E70124D4E7002448
:1038E000D2E70124D0E70124B4E70F460546284A71
:1038F000136823F080531360FFF760FA0646244BE9
:103900001B6813F0005F05D0FFF758FA801B0228F0
:10391000F5D90324002C9FD14FBB1D494B6923F4DB
:103920001F3323F44073A868EA681209520442EA7C
:10393000002213434B61164A136843F0805313600F
:10394000FFF73CFA0646124B1B6813F0005F05D1E7
:10395000FFF734FA801B0228F5D90324002C7FF4EA
:103960007BAF0B4A536969690B43536174E708489D
:10397000426922F0C06222F4FE42A9682B695B080A
:10398000013B5B0643EA012313434361D3E700BFD6
:10399000001002402DE9F04182B00446036813F4A0
:1039A000006F2FD0436EB3F5800F23D014D9B3F539
:1039B000000F18D0B3F5400F22D10026002E40F0A2
:1039C0009980654AD2F8883023F44003616E0B4336
:1039D000C2F88830374617E093B900210430FFF76A
:1039E0006BFE0646EAE75C4AD36843F48033D36053
:1039F0000026E3E700212030FFF71EFF0646DDE743
:103A00000126DBE700273E46236813F4805F15D0CC
:103A1000A36EB3F1807F7CD06ED9B3F1007F72D0FA
:103A2000B3F1407F7CD1002E7CD14B4AD2F8883054
:103A300023F04073A16E0B43C2F88830236813F45F
:103A4000003F00F09280444B9B6D13F0805F6BD180
:103A50000123002B6AD0404B9A6D42F080529A6548
:103A60009B6D03F080530193019B4FF001083B4A8B
:103A7000136843F480731360FFF7A0F90546374BD2
:103A80001B6813F4807F05D1FFF798F9401B0228CB
:103A9000F5D90326002E63D12F4BD3F8903013F4C1
:103AA000407316D0D4F88420934212D02A4AD2F818
:103AB000903023F44073D2F8901041F48031C2F872
:103AC0009010D2F8901021F48031C2F89010C2F812
:103AD000903013F0010F2CD1002E40F044811E4A8B
:103AE000D2F8903023F44073D4F884100B43C2F81A
:103AF000903036E0374687E793B90021201DFFF765
:103B0000DBFD06468FE7144AD36843F48033D36065
:103B100089E7002104F12000FFF78EFE064682E7C8
:103B2000012680E7374689E7002392E74FF0000837
:103B30009DE7FFF743F90546074BD3F8903013F0A4
:103B4000020FC9D1FFF73AF9401B41F2883398427E
:103B5000F2D90326C0E700BF001002400070004009
:103B60003746B8F1000F40F00081236813F0010FD1
:103B700008D09D4AD2F8883023F00303A16B0B4391
:103B8000C2F88830236813F0020F08D0964AD2F8A2
:103B9000883023F00C03E16B0B43C2F888302368B4
:103BA00013F0040F08D0904AD2F8883023F0300385
:103BB000216C0B43C2F88830236813F0080F08D03B
:103BC000894AD2F8883023F0C003616C0B43C2F8F5
:103BD0008830236813F0100F08D0834AD2F8883059
:103BE00023F44073A16C0B43C2F88830236813F0B0
:103BF000200F08D07C4AD2F8883023F44063E16C6F
:103C00000B43C2F88830236813F4007F08D0764A4B
:103C1000D2F8883023F44023E16D0B43C2F888309A
:103C2000236813F4806F08D06F4AD2F8883023F4E9
:103C30004013216E0B43C2F88830236813F0400F05
:103C400008D0694AD2F8883023F44053216D0B43E1
:103C5000C2F88830236813F0800F08D0624AD2F887
:103C6000883023F44043616D0B43C2F888302368E9
:103C700013F4807F08D05C4AD2F8883023F44033B4
:103C8000A16D0B43C2F88830236813F4005F0FD096
:103C9000554AD2F8883023F04063E16E0B43C2F8F6
:103CA0008830E36EB3F1006F65D0B3F1806F67D0F9
:103CB000236813F4002F0FD04B4AD2F8883023F03A
:103CC0004063216F0B43C2F88830236FB3F1006F5C
:103CD0005ED0B3F1806F60D0236813F4802F0FD0D3
:103CE000414AD2F8883023F04063616F0B43C2F839
:103CF0008830636FB3F1006F57D0B3F1806F59D044
:103D0000236813F4804F0FD0374AD2F8883023F05D
:103D10004053A16F0B43C2F88830A36FB3F1805FAB
:103D200050D0B3F1005F55D0236813F4004F08D092
:103D30002D4AD2F8883023F08043E16F0B43C2F85C
:103D40008830236813F4803F09D0274AD2F888309E
:103D500023F00043D4F880100B43C2F88830384673
:103D600002B0BDE8F0813746FBE61F4A936D23F0B1
:103D700080539365F9E6D36843F48013D36097E7E3
:103D80000121201DFFF798FC002891D007468FE7FE
:103D9000D36843F48013D3609EE70121201DFFF711
:103DA0008BFC002898D0074696E7D36843F480132D
:103DB000D360A5E70121201DFFF77EFC00289FD0DE
:103DC00007469DE70221201DFFF776FC0028ABD0B7
:103DD0000746A9E7022104F12000FFF72DFD002886
:103DE000A2D00746A0E700BF00100240F0B583B0A4
:103DF00000239AE04FEAD30E0EF1080E50F82E4041
:103E000003F00706B6000F27B74024EA07040F693E
:103E100007FA06F6344340F82E4095E086682640BF
:103E2000CF6807FA0EF73E438660466826EA050625
:103E30004F68C7F300179F403E4346604E6806F048
:103E40000307032F00F09B80C5682C408D6805FA9E
:103E50000EF52C43C4604C6814F0805F64D0544C61
:103E6000256E45F001052566246E04F001040194D9
:103E7000019C9C08A61C4F4D55F8265003F00306E4
:103E8000B7000F26BE4025EA0605B0F1904F00F0BE
:103E90008180494EB0427FD006F58066B0427DD029
:103EA00006F58066B0427BD006F58066B04279D0D8
:103EB00006F58066B04277D006F58066B04267D0DE
:103EC0000726BE40354302343A4E46F824503B4C58
:103ED0002568D44305EA04064F6817F4803F01D0F3
:103EE00042EA0506354D2E606D6804EA05064F6806
:103EF00017F4003F01D042EA0506304D6E60AD6810
:103F000004EA05064F6817F4801F01D042EA05064F
:103F10002A4DAE60ED682C404E6816F4001F01D0AB
:103F200042EA0504254AD46001330A6832FA03F4F0
:103F30003CD001259D402A40F6D04C68022C3FF42D
:103F400059AF122C3FF456AF06684FEA430E0324D4
:103F500004FA0EF4E44326404F6807F0030707FA1B
:103F60000EF73E4306604E68771E012F7FF656AF70
:103F7000112E3FF453AF122E7FF460AF4EE7C76AA5
:103F800027EA0505C6F3C0069E402E43C6625BE7DE
:103F9000062696E7002694E7012692E7022690E798
:103FA00003268EE704268CE705268AE703B0F0BDDA
:103FB00000100240000001400004004800040140DD
:103FC0000AB9816270478161704770B4066C446CB5
:103FD00004F01C050124AC407460046863608368CD
:103FE000102B05D0036899600368DA6070BC7047D5
:103FF00003689A600368D960F8E70000002869D078
:1040000010B403460168344A914245D8334A0A4401
:104010003349A1FB0212120992004264314A026440
:10402000022283F825201868016821F4FF4121F05D
:1040300070019A68DC6822431C6922435C69224350
:104040009C692243DC6922431C6A22430A430260C2
:104050009A68B2F5804F15D0196C224A914226D049
:10406000214A1168586C00F01C040F20A04021EA7E
:1040700000011160116858685C6C04F01C04A040D9
:10408000014311600020D863012283F8252083F8C2
:1040900024005DF8044B7047144A0A441049A1FB00
:1040A0000212120992004264114A0264B8E7A8326F
:1040B0001168586C00F01C040F20A04021EA000198
:1040C0001160116858685C6C04F01C04A040014346
:1040D0001160D7E70120704707040240F8FFFDBFD9
:1040E000CDCCCCCC00000240A8040240F8FBFDBFC0
:1040F0000004024038B590F82440012C33D001244C
:1041000080F8244090F82540E4B2012C04D000232C
:1041100080F82430022038BD0446022084F82500AF
:104120000020E0632568286820F001002860204610
:10413000FFF74BFF236B5BB12268136843F00E035C
:1041400013602268136843F001031360002038BD38
:104150002268136823F0040313602268136843F095
:104160000A031360EDE7022038BD08B590F825304A
:10417000DBB2022B03D00423C363012008BD026815
:10418000136823F00E0313600268136823F0010321
:104190001360016C436C03F01C03012202FA03F369
:1041A0004B6080F82520002380F82430836B13B106
:1041B0009847002008BD002008BD38B5036C196879
:1041C00004682568436C03F01C0304229A401142E2
:1041D00016D015F0040F13D0236813F0200F03D16D
:1041E000236823F004032360016C436C03F01C027A
:1041F000042393404B60036B002B3ED0984738BD9F
:1042000002229A4011421BD015F0020F18D02368E9
:1042100013F0200F06D1236823F00A032360012343
:1042200080F82530016C436C03F01C02022393409C
:104230004B60002380F82430C36AF3B1984738BD3F
:10424000082202FA03F3194217D015F0080F14D010
:10425000236823F00E032360016C436C03F01C03FE
:10426000012202FA03F34B60C26380F82520002389
:1042700080F82430436B03B1984738BD024B18686F
:1042800000F4C060704700BF00700040B0F5007FD0
:104290000FD01F4B1B6803F4C063B3F5806F34D09D
:1042A0001B4A136823F4C06343F480631360002047
:1042B0007047174B1B6803F4C063B3F5007F20D031
:1042C000134A136823F4C06343F400731360114B63
:1042D0001A68322303FB02F30F4AA2FB03239B0C51
:1042E000013300E0013B0A4A526912F4806F01D0A9
:1042F000002BF7D1064B5B6913F4806F03D00320CA
:10430000704700207047002070470020704700BFB2
:10431000007000400800002083DE1B43074AD3687A
:1043200023F4E0631B041B0C000200F4E06018435C
:1043300040F0BF6040F40030D060704700ED00E016
:1043400030B4164BDB68C3F30223C3F10704042C1B
:1043500028BF04241D1D062D17D9033B012505FA8E
:1043600004F4013C2140994005FA03F3013B13405A
:10437000194300280BDB0901C9B200F1604000F5C8
:10438000614080F8001330BC70470023E6E700F07E
:104390000F000901C9B2024B1954F4E700ED00E027
:1043A00014ED00E0002808DB420900F01F000123A3
:1043B00003FA00F0014B43F82200704700E100E0EF
:1043C0000138B0F1807F0AD2064B5860F021064ACE
:1043D00082F823100020986007221A60704701209D
:1043E000704700BF10E000E000ED00E00F49D1F899
:1043F000883043F47003C1F888300D4B1A6842F0DE
:1044000001021A60002098601A6822F0A85222F473
:1044100010221A604FF48052DA601A6822F4802267
:104420001A6098614FF000638B60704700ED00E008
:1044300000100240DFF834D0002103E00C4B5B5841
:10444000435004310B480C4B42189A42F6D30B4AA6
:1044500002E0002342F8043B094B9A42F9D3FFF7EC
:10446000C5FF00F011F8FCF725FEFEE700800120F3
:10447000004E0008000000207000002070000020A6
:104480008C020020FEE7000070B50D4E0D4CA41B01
:10449000A4100025A54209D10B4E0C4C00F034FCB1
:1044A000A41BA4100025A54205D170BD56F82530E7
:1044B00098470135EEE756F8253098470135F2E781
:1044C000F04D0008F04D0008F04D0008F44D0008D4
:1044D00002440346934200D1704703F8011BF9E7F9
:1044E0000EB400B59CB01DAB029006906FF0004179
:1044F000094807910491094953F8042B0591006874
:10450000019302A900F066F8029B00221A701CB009
:104510005DF804EB03B070470C0000200802FFFFB9
:104520002DE9F0478E689E4282460C469046994699
:1045300037D88A8912F4906F31D0256809696F1ACB
:104540006569022305EB450595FBF3F509F10103C8
:104550003B449D4238BF1D46530530D5294600F0E7
:104560002BFB064650B90C23CAF80030A38943F050
:104570004003A3814FF0FF30BDE8F0873A46216940
:1045800000F0A8FAA38923F4906343F08003A38189
:10459000266165613E44ED1B2660A5604E464E4592
:1045A00000D94E4632464146206800F09EFAA36884
:1045B0009B1BA36023681E4426600020DCE72A467C
:1045C00000F054FB06460028E2D12169504600F075
:1045D000A5FAC8E72DE9F04F1D468B891F069DB04F
:1045E00080460C4616460FD50B696BB9402100F08A
:1045F000E3FA2060206128B90C23C8F800304FF09E
:10460000FF30C8E0402363610023099320238DF825
:10461000293030238DF82A3003954FF0010B3746AF
:104620003D4615F8013B0BB1252B3ED1B7EB060AF1
:104630000BD05346324621464046FFF771FF01300A
:1046400000F0A480099B534409933B78002B00F0B1
:104650009D8000234FF0FF32CDE90523049307939B
:104660008DF853301A932F46052217F8011B504836
:10467000FBF7B6FD049BD0B9D90644BF20228DF8C4
:1046800053201A0744BF2B228DF853202A782A2A58
:1046900015D0079A2F4600200A25394611F8013B0C
:1046A000303B092B4DD9B8B10FE02F46B8E7404A4F
:1046B000801A0BFA00F0184304903D46D3E7039AA2
:1046C000111D12680391002A01DB079204E0524297
:1046D00043F00203079204933B782E2B0CD17B7896
:1046E0002A2B33D1039B1A1D1B680392002BB8BFE2
:1046F0004FF0FF33023705932E4D397803222846B9
:10470000FBF76EFD38B14023401B03FA00F0049B19
:10471000034301370493397827488DF8281006227F
:104720007E1CFBF75DFD002838D0244B13BB039B98
:10473000073323F0070308330393099B4B44099382
:104740006DE705FB023201200F46A6E70023013783
:10475000059319460A25384610F8012B303A092AE4
:1047600003D9002BC8D00591C6E705FB0121012321
:104770000746F0E703AB00932246114B04A94046DD
:10478000AFF30080B0F1FF3F8146D6D1A3895B062D
:104790003FF535AF09981DB0BDE8F08F03AB00932E
:1047A0002246074B04A9404600F082F8EAE700BF22
:1047B000B04D0008B64D0008BA4D000800000000DA
:1047C000214500082DE9F04791461F468A680B698C
:1047D000DDF820809342B8BF1346C9F8003091F845
:1047E000432006460C4612B10133C9F80030236855
:1047F000990642BFD9F800300233C9F80030256865
:1048000015F0060507D104F1190AE368D9F800206C
:104810009B1AAB4228DC94F843302268003318BF5F
:10482000012392062DD404F1430239463046C04795
:10483000013020D02368E568D9F8002003F0060392
:10484000042B08BFAD1AA36822690CBF25EAE575E1
:1048500000259342C4BF9B1AED184FF000091A348B
:104860004D451AD1002008E0012352463946304612
:10487000C047013003D14FF0FF30BDE8F08701356C
:10488000C3E7E1185A1C302081F84300224494F811
:10489000451082F843100233C5E70123224639460A
:1048A0003046C0470130E6D009F10109D8E70000E1
:1048B0002DE9F04301F1430C0C46097E85B06E29C9
:1048C0001746064698460C9A00F0B38022D8632912
:1048D00036D00AD8002900F0B980582900F083802A
:1048E00004F1420584F8421032E0642901D06929BC
:1048F000F6D120681368050603F104012AD51B6868
:104900001160002B03DA2D225B4284F843206F48AC
:104910000A2239E0732900F09D8008D86F2920D041
:104920007029DDD1236843F02003236003E075295B
:1049300017D07829D4D1782384F84530644855E0DD
:104940001368191D1B68116004F1420584F8423098
:1049500001238CE01B68116010F0400F18BF1BB2E0
:10496000CFE713682568181D1060280601D51B685D
:1049700002E06806FBD51B8854486F2914BF0A2241
:104980000822002184F843106568A560002DC0F25C
:104990009580216821F004012160002B3DD1002D7C
:1049A00040F08E806546082A0BD12368DB0708D5C6
:1049B000236962689A42DEBF302305F8013C05F1A5
:1049C000FF35ACEB05032361CDF800803B4603AA1D
:1049D00021463046FFF7F6FE01304DD14FF0FF3053
:1049E00005B0BDE8F083394884F8451013682168A4
:1049F0001D1D1B6815600A060BD5CA0744BF41F090
:104A0000200121601BB9226822F0200222601022BE
:104A1000B7E74D0648BF9BB2EFE76546B3FBF2F13F
:104A200002FB1133C35C05F8013D0B460029F5D1AB
:104A3000B9E7136825686169181D106028061B68AE
:104A400001D5196002E06A06FBD5198000232361B5
:104A50006546B9E71368191D11601D686268002179
:104A60002846FBF7BDFB08B1401B6060636823610B
:104A7000002384F84330A7E723692A4639463046A5
:104A8000C0470130AAD023689B0713D4E068039B7A
:104A90009842B8BF1846A3E701234A463946304634
:104AA000C04701309AD00135E368039A9B1AAB42A4
:104AB000F2DCEBE7002504F11909F5E7002BACD196
:104AC000037884F8423004F142056CE7C14D0008D8
:104AD000D24D000810B5431E0A44914200D110BDCA
:104AE00011F8014B03F8014FF7E7884210B501EBCD
:104AF000020307D8421E99420AD011F8014B02F86E
:104B0000014FF8E78342F5D98118D21AD34200D178
:104B100010BD13F8014D01F8014DF7E738B5054612
:104B2000002945D051F8043C0C1F002BB8BFE418F5
:104B300000F0D2F81F4A1368104633B9636014605E
:104B40002846BDE8384000F0C8B8A3420CD9216817
:104B50006218934204BF1A685B68636004BF52180E
:104B600022600460ECE713465A680AB1A242FAD9FF
:104B700019685818A0420BD1206801445818824285
:104B80001960DDD1106852685A6001441960D7E796
:104B900002D90C232B60D3E7206821188A4204BF76
:104BA00011685268626004BF091821605C60C7E741
:104BB00038BD00BFA800002070B5CD1C25F003054E
:104BC00008350C2D38BF0C25002D064601DBA94207
:104BD00003D90C233360002070BD00F07DF8214A1A
:104BE0001468214691B9204C23681BB9304600F067
:104BF00063F820602946304600F05EF8431C24D15B
:104C00000C233360304600F068F8E4E70B685B1B68
:104C100018D40B2B0FD90B60CD50CC18304600F0B8
:104C20005CF804F10B00231D20F00700C31AD3D059
:104C30005A42E250D0E78C424B6816BF6360136063
:104C40000C46EBE70C464968CCE7C41C24F003048F
:104C5000A04205D0211A304600F02EF80130CFD006
:104C60002560DBE7A8000020AC000020F8B507466F
:104C700014460E4621B91146BDE8F840FFF79CBF27
:104C800022B9FFF74BFF25462846F8BD00F026F86D
:104C9000A0420FD221463846FFF78EFF0546002876
:104CA000F2D031462246FFF715FF31463846FFF76E
:104CB00035FFE9E73546E7E738B5064C00230546FA
:104CC0000846236000F012F8431C02D1236803B1A8
:104CD0002B6038BD880200207047704751F8043CB3
:104CE000181F002BBCBF0B58C0187047044A054959
:104CF0001368002B08BF0B46184410601846704715
:104D0000B000002090020020F8B500BFF8BC08BC3D
:104D10009E467047F8B500BFF8BC08BC9E46704779
:104D20002D0000002573257325642E253034640A78
:104D3000000000006B6169737575203A2025640AD4
:104D400000000000784163636C203D2000000000FB
:104D5000794163636C203D20000000007A41636369
:104D60006C203D200000000000000000000000005A
:104D70000102030406070809000000000102030401
:104D8000A0860100400D0300801A060000350C00CB
:104D900040420F0080841E0000093D0000127A008E
:104DA0000024F40000366E010048E801006CDC02CB
:104DB000232D302B2000686C4C0065666745464704
:104DC0000030313233343536373839414243444587
:104DD00046003031323334353637383961626364F6
:084DE000656600000000000000
:084DE80004BDFF7F0100000083
:084DF000B501000800000000FD
:084DF800910100080000000019
:104E0000010000001000000000093D00100000201B
:104E10000000000000000000000000000000000092
:104E20000000000000000000000000000000000082
:104E30000000000000000000000000000000000072
:104E40000000000000000000000000000000000062
:104E50000000000000000000000000000000000052
:104E60000000000000000000000000000000000042
:040000050800443576
:00000001FF
