:020000040800F2
:100000000080012011340008A9060008AB06000892
:10001000AD060008AF060008B106000800000000A9
:10002000000000000000000000000000B30600080F
:10003000B506000800000000B7060008B906000871
:10004000613400086134000861340008613400083C
:10005000613400086134000861340008613400082C
:10006000613400086134000861340008613400081C
:10007000613400086134000861340008613400080C
:10008000C1060008D1060008613400086134000888
:1000900061340008613400086134000861340008EC
:1000A00061340008613400086134000861340008DC
:1000B000613400086134000861340008E10600087A
:1000C00061340008613400086134000861340008BC
:1000D00061340008613400086134000861340008AC
:1000E000613400086134000861340008613400089C
:1000F000613400086134000861340008613400088C
:10010000613400086134000861340008613400087B
:10011000613400086134000861340008613400086B
:10012000613400086134000861340008613400085B
:10013000613400086134000861340008613400084B
:10014000613400086134000861340008613400083B
:10015000613400086134000861340008613400082B
:10016000613400086134000861340008613400081B
:1001700061340008613400086134000800000000A8
:0801800061340008613400083D
:10019000034613F8012B002AFBD1181A01387047C7
:1001A00001F0FF01102A2BDB10F0070F08D010F828
:1001B000013B013A8B422DD010F0070F42B3F6D12C
:1001C000F0B441EA012141EA014122F007047FF045
:1001D00000070023F0E80256083C85EA010586EA9C
:1001E000010685FA47F5A3FA87F586FA47F6A5FAD8
:1001F00087F68EB9EED1F0BC01F0FF0102F00702E4
:1002000032B110F8013B013A83EA010313B1F8D18E
:100210000020704701387047002D06BF354603386F
:10022000073815F0010F07D1013015F4807F02BFA8
:10023000013015F4C03F0130F0BC0138704700BFF9
:1002400053B94AB9002908BF00281CBF4FF0FF313D
:100250004FF0FF3000F00CB8ADF1080C6DE904CEA2
:1002600003F048FDDDF804E0DDE9022304B0704747
:10027000704700BF10B5054C227832B9044B13B15A
:100280000448AFF300800123237010BD70000020EC
:1002900000000000A83F000808B5034B1BB103494C
:1002A0000348AFF3008008BD000000007400002088
:1002B000A83F0008014B00221A607047FC00002094
:1002C00010B5B8B02422002128A803F0EFF80024CC
:1002D00022942394249425942694882221466846C7
:1002E00003F0E4F8022327934FF480722A9210223D
:1002F0002B9231933293012233920A2234920722B5
:1003000035923693379327A801F00CFE0F232293E2
:1003100003232393249425942694042122A802F0F5
:10032000EFF8422300930F941494684602F01EFBEA
:100330004FF4007002F098FF38B010BD30B585B0B2
:1003400001F012FDFFF7BCFF00F04AF800F098F84A
:1003500000F05AF900F0B6F81A4B01221A60002298
:1003600004E04FF47A7001F027FD2A46551C164C24
:100370001649204603F0A2F82046FFF709FF642340
:1003800082B22146124801F0F4FB012301930DF1E2
:100390000F020092022232210E4800F0BBFB094BF3
:1003A0001B68002BDDD12A460B49204603F086F856
:1003B0002046FFF7EDFE642382B22146044801F097
:1003C000D8FBCEE7FC00002098000020C03F0008CA
:1003D000DC01002048010020D03F000870470000E9
:1003E00010B58AB0002405940694079408940994E3
:1003F000204BDA6C42F00402DA64DA6C02F0040298
:100400000192019ADA6C42F08002DA64DA6C02F04E
:1004100080020292029ADA6C42F00102DA64DA6C2B
:1004200002F001020392039ADA6C42F00202DA64EB
:10043000DB6C03F002030493049B224620214FF05F
:10044000904002F0A9FD4FF4005305930A4B069328
:10045000079405A9094802F0B5FC20230593012360
:1004600006930794089405A94FF0904002F0AAFC67
:100470000AB010BD00100240000021100008004822
:1004800000B583B00E4B9A6C42F001029A649B6CEB
:1004900003F001030193019B00221146102002F09A
:1004A0003BFF102002F06CFF00221146112002F0E9
:1004B00033FF112002F064FF03B05DF804FB00BFBE
:1004C0000010024008B51248124B0360124B436003
:1004D000002383600122C260036143618361C361C1
:1004E000036200F0B9FA50B90021094801F03DF863
:1004F00040B90021064801F069F830B908BDFFF79E
:100500006DFFF1E7FFF76AFFF3E7FFF767FFF5E736
:100510004801002000540040EC9C901070B588B059
:1005200000230393049305930693079302682F4BCC
:100530009A4201D008B070BD04462D4DEB6C43F0DB
:100540000203EB64EB6C03F002030193019BC023F5
:100550000393122304930123059303260696042391
:10056000079303A9234802F02DFCAB6D43F400135D
:10057000AB65AB6D03F400130293029B1E481F4B47
:100580000360466000238360C36080220261436190
:100590008361C361036202F01DFD00BB164BE36380
:1005A0009C621748174B036003234360102383604A
:1005B0000023C3608022026143618361C3610362DF
:1005C00002F008FD70B90E4BA3639C620022114635
:1005D0001F2002F0A1FE1F2002F0D2FEAAE7FFF7C3
:1005E000FDFEDBE7FFF7FAFEEDE700BF0054004039
:1005F00000100240000400489401002080000240E6
:10060000000100206C00024008B50B480B4B036052
:100610004FF4E133436000238360C36003610C2225
:1006200042618361C3610362436201F044FB00B92C
:1006300008BDFFF7D3FEFBE7DC01002000440040CB
:1006400000B589B0002303930493059306930793A1
:100650000268144B9A4202D009B05DF804FB03F51E
:10066000E6339A6D42F400329A659A6D02F40032D4
:100670000192019ADA6C42F00102DA64DB6C03F059
:1006800001030293029B0C2303930223049303238D
:1006900006930723079303A94FF0904002F092FBC3
:1006A000DAE700BF004400407047FEE7FEE7FEE7E0
:1006B000FEE770477047704708B501F06BFB08BD57
:1006C00008B5024802F065FD08BD00BF000100202A
:1006D00008B5024802F05DFD08BD00BF940100208E
:1006E00008B5024800F0CCFA08BD00BF4801002060
:1006F00082B00A4B1A6E42F001021A661A6E02F0BC
:1007000001020092009A9A6D42F080529A659B6DA8
:1007100003F080530193019B02B070470010024028
:1007200003689A6912F0020F01D000229A620368EE
:100730009A6912F0010F03D19A6942F001029A619D
:10074000704770B4039E05686868740D04F4806493
:1007500044F07F7444F4583444F47F7444F0030448
:1007600020EA0400C1F3090141EA0241194331437F
:100770000143696070BC7047436B1D4A934217D0B8
:100780001C4A934214D011F0040F2FD1002311F012
:10079000010F01D043F0F20311F0020F01D043F03A
:1007A000F40301F01201122910D143F020030DE0EF
:1007B00011F0040F0FD1002301F01102112A0CD007
:1007C00001F0120112290BD012290CD001680A681D
:1007D00013430B607047B823EEE743F09003EFE755
:1007E00043F02003F0E743F04003EFE7B823CEE700
:1007F000911300089912000811F0010F09D090F828
:10080000413003F02803282B01D0F22302E04223D9
:1008100000E0002311F0020F2CD010B443F0440488
:1008200090F8412002F02802282A18D043F0F4035F
:1008300011F0040F01D043F0B80301F01102112AA6
:100840000FD001F0120112290ED012290FD0016829
:100850000A6822EA03030B605DF8044B70472346E5
:10086000E6E743F09003ECE743F02003EDE743F0C5
:100870004003ECE711F0040F01D043F0B80301F09E
:100880001102112A0BD001F0120112290AD01229EB
:100890000BD001680A6822EA03030B60704743F03B
:1008A0009003F0E743F02003F1E743F04003F0E763
:1008B00070B504460D46164603689B6913F0100F89
:1008C00001D1002070BD23689A6912F0200F17D162
:1008D000B5F1FF3FF7D001F069FA801BA84201D8BB
:1008E000002DF0D1636C43F020036364202384F86F
:1008F0004130002384F8423084F840300120E1E7A1
:100900001022DA6123682025DD612046FFF708FF09
:100910002268536823F0FF7323F48B3323F4FF73AF
:1009200023F001035360636C43F00403636484F8B1
:100930004150002384F8423084F840300120C1E760
:1009400070B504460D46164623689B6913F0020FE6
:100950001DD1324629462046FFF7AAFFC8B9B5F196
:10096000FF3FF1D001F022FA801BA84201D8002DF0
:10097000EAD1636C43F020036364202384F84130A0
:10098000002384F8423084F84030012000E0002049
:1009900070BD0120FCE7F8B505460F4616461C461B
:1009A0002B689B6937EA03030CBF01230023B34282
:1009B00018D1B4F1FF3FF3D001F0F8F9069BC01A4B
:1009C000A04201D8002CEBD16B6C43F020036B6488
:1009D000202385F84130002385F8423085F84030E7
:1009E000012000E00020F8BD70B582B00446154635
:1009F0001E46184B00930023F2B2FFF7A2FE079A9F
:100A000006992046FFF79CFFF0B9012E0FD123680D
:100A1000EDB29D62079B0093069B00224021204679
:100A2000FFF7B9FF034698B9184602B070BD2368B6
:100A30002A0A9A62079A06992046FFF781FF28B989
:100A40002368EDB29D62E5E70123EDE70123EBE7C3
:100A50000123E9E700200080002859D010B50446A2
:100A600090F84130002B43D0242384F84130226891
:100A7000136823F0010313606368226823F0706336
:100A800013612268936823F400439360E368012BA9
:100A900033D0A368226843F404439360E368022BD5
:100AA00031D02268536843F0007343F4004353602D
:100AB0002268D36823F40043D36023696269134337
:100AC000A169226843EA0123D360E369216A2268AD
:100AD0000B4313602268136843F001031360002086
:100AE0006064202384F84130206384F8420010BD04
:100AF00080F84030FFF712FDB6E7A368226843F4A0
:100B000000439360CAE723684FF400625A60C8E765
:100B1000012070472DE9F04383B0BDF82C5090F8C8
:100B20004140E4B2202C40F097800A9C002C5BD01E
:100B3000002D59D00468A46914F4004F40F091804E
:100B400090F84040012C00F08E80984617460E46E3
:100B50000446012380F8403001F028F9222384F86C
:100B60004130402384F84230002363640A9B63626F
:100B700065853E4BE3623E4B6363638D9BB2FF2B07
:100B800037D9FF2323854FF08079019019230093F3
:100B900043463A4631462046FFF726FF00282DD12E
:100BA000E36B002B2FD0334ADA62E36B324A5A638D
:100BB000E26B00231363E26B93632168238D0A9A2F
:100BC0002431E06B02F082FA054650B3202384F80A
:100BD0004130002284F84220636C43F010036364C8
:100BE00084F84020012538E04FF400734364012568
:100BF00033E0638D23854FF00079C6E7002384F846
:100C00004030012529E0202384F84130002284F877
:100C10004220636C43F08003636484F84020012524
:100C20001BE0164B00934B4694F828203146204693
:100C3000FFF787FD638D228D9B1A9BB2638500238E
:100C400084F8403011212046FFF796FD2268136892
:100C500043F40043136000E00225284603B0BDE8DA
:100C6000F0830225F9E70225F7E700BF0000FFFF48
:100C700091130008E7140008D11400080024008034
:100C800008B5036899691A68436B03B1984708BDB2
:100C90007047704738B50446002380F8423090F81A
:100CA0004130DBB2212B0FD0202380F841301223BA
:100CB0000363002545630221FFF79EFD84F8405041
:100CC0002046FFF7E6FF38BD202380F8413011238E
:100CD0000363002545630121FFF78EFD84F8405032
:100CE0002046FFF7D5FFEEE77047704710B5044682
:100CF000002380F8423090F84130DBB2292B05D038
:100D000090F84130DBB22A2B0FD010BD282380F899
:100D10004130212303630121FFF76EFD002384F896
:100D200040302046FFF7E0FFEFE7282380F841300E
:100D3000222303630221FFF75FFD002384F8403084
:100D40002046FFF7D2FFE0E77047F8B590F8413052
:100D500003F02803282B06D003680822DA61002359
:100D600080F84030F8BD044603689E69C6F300462B
:100D70009A69120C02F0FE059A68C2F30902DF6854
:100D800007F0FE07C168022921D185EAD21515F0C6
:100D9000060F10D1816C01318164816C0229E1D18F
:100DA000002181640820D86184F840103146204633
:100DB000FFF7CAFFD6E70421FFF71EFD002384F8E2
:100DC00040303A4631462046FFF7BEFFCAE70421CD
:100DD000FFF712FD002384F840302A4631462046B2
:100DE000FFF7B2FFBEE7704710B50446164BC3626B
:100DF00000230363202280F8412080F842304363BF
:100E000011F0040F12D003685A6A436A1A70436AD9
:100E100001334362038D4BB1013B0385438D013B9D
:100E20009BB24385436C43F004034364072120468F
:100E3000FFF7E2FC23681022DA61002384F84030D7
:100E40002046FFF7D0FF10BD0000FFFF704770473E
:100E50007047000010B5044690F84130002280F839
:100E600042203648E0626285626C11436164283B2F
:100E7000DBB2022B24D803212046FFF7BDFC282338
:100E800084F84130002323632D4B636323681A6881
:100E900012F4804F24D01A6822F480421A60A36BA7
:100EA000002B3FD0274A9A63002384F84030A06B80
:100EB00002F047F9002835D0A06B836B984731E0EA
:100EC00007212046FFF798FC94F84130DBB2602BF5
:100ED00002D0202384F84130002323636363D5E7E5
:100EE0001A6812F4004F12D01A6822F400421A60F5
:100EF000E36BBBB1134A9A63002384F84030E06B84
:100F000002F01FF970B1E06B836B98470AE094F828
:100F10004130DBB2602B06D0002384F840302046FD
:100F2000FFF795FF10BD202384F84130002384F89B
:100F300040302046FFF78CFFF4E700BF0000FFFFC2
:100F4000691000084115000870B504460D46036895
:100F50001E682022DA610721FFF74EFC22685368E1
:100F600043F4004353602268536823F0FF7323F473
:100F70008B3323F4FF7323F0010353602046FFF704
:100F8000CFFB16F4804F3AD0A36B1BB11B685B6894
:100F90009BB2638515F0040F10D025F0040523687B
:100FA0005A6A636A1A70636A01336362238D2BB1D4
:100FB000013B2385638D013B9BB26385638D9BB2AF
:100FC0001BB1636C43F0040363640023236384F860
:100FD00042306363636CEBB9E36A13F5803F27D15A
:100FE00094F84130DBB2222B31D0202384F84130F9
:100FF000002384F840302046FFF776FE26E016F402
:10100000004FC7D0E36B002BC4D01B685B689BB25A
:101010006385BFE7616C2046FFF71CFF94F8413001
:10102000DBB2282B12D129462046FFF7DDFE0DE06A
:101030002046FFF75BFE0B4BE362202384F8413030
:10104000002384F840302046FFF7CDFE70BD2023FA
:1010500084F84130002384F840302046FFF745FEF5
:10106000F4E700BF0000FFFF70B51646C26A90F8B3
:101070004030012B00F09D8004460D46012380F88E
:10108000403011F0100F3FD016F0100F3CD0438DC0
:101090009BB24BBB90F84130DBB2282B11D094F8B7
:1010A0004130DBB2292B12D023681022DA6115F00F
:1010B000200F02D016F0200F76D1002084F84000D7
:1010C00070BDB2F1007FEAD1FFF78EFEEFE712F5B7
:1010D000803FE9D023681022DA612046FFF720FB29
:1010E0002046FFF703FEE2E703681021D961436C55
:1010F00043F00403436412B1B2F1807FD7D1616C35
:101100002046FFF7A7FED2E715F0040F20D016F017
:10111000040F1DD0638D9BB27BB125F004052368BD
:10112000596A636A1970636A01336362238D013BF4
:101130002385638D013B9BB26385638D9BB2002B3E
:10114000B5D112F5803FB2D02046FFF7CFFDAEE714
:1011500015F0080F02D016F0080F17D115F0020F86
:10116000A5D016F0020FA2D0638D9BB29BB1626A2C
:10117000236812789A62636A01336362638D013B6C
:101180009BB26385238D013B238590E7294620464A
:10119000FFF7DBFD8BE7B2F1807F01D0002A86D11B
:1011A0002046FFF7A3FD82E729462046FFF7CCFE45
:1011B00083E7022084E710B5044603682022DA6141
:1011C0000268536823F0FF7323F48B3323F4FF7317
:1011D00023F001035360002303634363A3F58033CB
:1011E000C36211F0100F06D003681022DA61436C5D
:1011F00043F0040343642046FFF792FA032120469C
:10120000FFF7FAFA626C94F84130DBB2602B00D041
:1012100022B1616C2046FFF71DFE10BD94F84130ED
:10122000DBB2212B15D094F84130DBB2222BF4D164
:10123000202384F8413094F84230DBB2402B22D096
:10124000002384F8423084F840302046FFF721FD27
:10125000E3E7202384F8413094F84230DBB2402B9E
:1012600008D0002384F8423084F840302046FFF74D
:101270000FFDD2E7002384F8423084F84030204646
:10128000FFF7E4FDC9E7002384F8423084F84030DA
:101290002046FFF70FF8C0E738B5C56A90F8403030
:1012A000012B73D00446012380F8403011F0100F59
:1012B00054D012F0100F51D0C2F3803313B912F48E
:1012C000004F47D0E06B38B112F4004F06D00268EF
:1012D0005268DAB1002002E0002000E00020A26B9A
:1012E0001AB113B113685B6893B188B923681022EF
:1012F000DA61636C43F00403636415B1B5F1807F78
:1013000038D1616C2046FFF7A5FD33E00120E6E708
:1013100094F84130DBB2282B08D094F84130DBB28E
:10132000292B0AD023681022DA6123E0B5F1007F6F
:10133000F3D12046FFF758FD1CE015F5803FF1D0B2
:1013400023681022DA612046FFF7EAF92046FFF70A
:10135000CDFC0FE003681022DA610BE011F0080FFA
:1013600002D012F0080F09D111F0200F02D012F0B4
:10137000200F07D1002084F8400038BD2046FFF739
:10138000E4FCF7E72046FFF7DFFDF3E70220F4E790
:1013900090F84030012B00F0998010B582B00446DF
:1013A000012380F8403011F0100F02D012F0100F1E
:1013B00031D111F0800F5FD012F0400F5CD0226865
:1013C000136823F040031360638D9BB2002B45D05C
:1013D00023685968C1F30901638D9BB2FF2B2CD997
:1013E000FF2323854FF080730022009294F8282079
:1013F0002046FFF7A6F9638D228D9B1A9BB2638569
:1014000094F84130DBB2222B22D02268136843F4D7
:10141000804313600CE003681022DA61436C43F0F0
:10142000040343641221FFF7A7F92046FFF778F978
:10143000002084F8400002B010BD638D2385E36A6C
:1014400013F5803F01D0E36ACEE74FF00073CBE79E
:101450002268136843F400431360E9E723685B687C
:1014600013F0007F03D12046FFF714FCE0E7402192
:101470002046FFF7EFFCDBE711F0400F1CD012F025
:10148000400F19D0638D9BB28BB923685A6812F054
:10149000007FCDD1E26A12F5803F04D15A6842F450
:1014A00080425A60C4E72046FFF7F4FBC0E74021C2
:1014B0002046FFF7CFFCBBE711F0200FB8D012F0A9
:1014C000200FB5D02046FFF776FEB1E70220704727
:1014D00008B5806A0268536843F4004353601021E2
:1014E000FFF7B8FC08BD10B5846A2268136823F4BE
:1014F00000431360638D9BB2ABB1238D626A1A44C3
:101500006262638D9BB2FF2B12D9FF232385216872
:10151000238D2431E06B01F0D9FD60B1102120460C
:10152000FFF798FC10BD12212046FFF725F9F9E7D7
:10153000638D2385EBE712212046FFF71DF9F1E7C4
:1015400008B5806A826B00239363C26B936390F843
:101550004130DBB2602B02D0FFF779FC08BD2023BD
:1015600080F84130FFF774FCF8E790F84130DBB2C7
:10157000202B27D190F84030012B25D010B4012327
:1015800080F84030242380F841300468226822F03B
:10159000010222600468226822F4805222600268FC
:1015A00013680B4313600268136843F00103136070
:1015B000202380F84130002380F8403018465DF841
:1015C000044B7047022070470220704790F841306A
:1015D000DBB2202B25D190F84030012B23D010B462
:1015E000012380F84030242380F8413004682268C9
:1015F00022F0010222600268136823F4706343EA58
:10160000012313600268136843F001031360202371
:1016100080F84130002380F8403018465DF8044BD4
:101620007047022070470220704700002DE9F04803
:101630000446016883680269134342691343C2691F
:1016400013430868994A024013430B6022685368A9
:1016500023F44053E1680B435360A1692268944B23
:101660009A4201D0236A1943936823F430630B43F1
:10167000936023688F4A934211D08F4A934222D0BD
:101680008E4A934238D08E4A934260D08D4A93421C
:1016900073D0874A934200F0898010253FE002F51D
:1016A0005842D2F8882002F00302032A09D8DFE862
:1016B00002F002049606012531E004252FE00825FA
:1016C0002DE010252BE002F5E632D2F8882002F05A
:1016D0000C020C2A0ED8DFE802F0070D0D0D090DE3
:1016E0000D0D840D0D0D0B00002518E0042516E0EE
:1016F000082514E0102512E002F5E432D2F8882023
:1017000002F03002102A6ED005D9202A6DD0302A7E
:101710001BD1082503E00AB9002500E01025644A22
:10172000934270D0E369B3F5004F00F0F280082DCA
:1017300000F27B81DFE815F03B0151015B0179018B
:10174000660179017901790170011025E7E702F559
:10175000E232D2F8882002F0C002402A47D005D9F0
:10176000802A46D0C02A06D10825D8E70AB9002524
:10177000D5E71025D3E71025D1E702F5E032D2F8FE
:10178000882002F44072B2F5807F34D007D9B2F5D8
:10179000007F32D0B2F5407F06D10825BFE70AB9F5
:1017A0000025BCE71025BAE71025B8E702F5C832D6
:1017B000D2F8882002F44062B2F5806F1FD007D9BA
:1017C000B2F5006F1DD0B2F5406F06D10825A6E72F
:1017D0000AB90025A3E71025A1E710259FE70225F8
:1017E0009DE702259BE7042599E7022597E7042555
:1017F00095E7022593E7042591E702258FE7042565
:101800008DE702258BE7082D00F21281DFE815F045
:101810000C00100114001001110010011001100142
:1018200009004FF4004008E000F01EFF28B9002531
:10183000CDE000F01DFBF9E72348626802EB4203AC
:10184000834200F2F780B0EB023F00F2F580082DF2
:101850005CD8DFE805F0055B1D5B3F5B5B5B500020
:1018600000F002FF0023070E06026268500816EB24
:10187000000B47F1000C58466146FEF7E1FCA0F56D
:101880004072124B9A4200F2D9802368D8609EE0E1
:10189000560800252B46DFF838B04FF0000C1BEB44
:1018A00006004CF10001FEF7CBFCE8E7F369FFEF1F
:1018B00000800040003801400044004000480040E3
:1018C000004C0040005000400024F400FFFC0F00DA
:1018D000000024F400F0CCFA0025070E060262682E
:1018E00050082B4616EB000B47F1000C584661469A
:1018F000FEF7A6FCC3E7500800252B4610F50000B4
:101900002CBF01210021FEF79BFCB8E70125002038
:10191000B5E7082D48D8DFE805F0051D284733470F
:1019200047473E0000F0A0FE6268530803EB400307
:10193000B3FBF2F39BB2A3F110014FF6EF729142A9
:101940007ED89AB222F00F02C3F3420313432268F7
:10195000D3603CE000F09AFE6268530803EB40035A
:10196000B3FBF2F39BB20025E5E76268530803F18D
:10197000F47303F59043B3FBF2F39BB20025DAE76F
:1019800000F076FA6268530803EB4003B3FBF2F30E
:101990009BB20025CFE76268530803F58033B3FBA1
:1019A000F2F39BB20025C6E701250023C3E700F050
:1019B0005BFE636800EB5300B0FBF3F080B2A0F174
:1019C00010024FF6EF739A423CD82368D860002388
:1019D000236663662846BDE8F08800F057FE63681A
:1019E00000EB5300B0FBF3F080B20025E7E763683B
:1019F000580800F5740000F51050B0FBF3F080B209
:101A00000025DCE700F034FA636800EB5300B0FB1C
:101A1000F3F080B20025D2E76368580800F5004073
:101A2000B0FBF3F080B20025C9E701250020C6E72E
:101A30000125CCE70125CAE70125C8E70125C6E74E
:101A40000125C4E70125C2E7436A13F0010F06D060
:101A50000268536823F40033816A0B435360436A7E
:101A600013F0020F06D00268536823F48033C16A72
:101A70000B435360436A13F0040F06D002685368A7
:101A800023F48023016B0B435360436A13F0080F68
:101A900006D00268536823F40043416B0B43536044
:101AA000436A13F0100F06D00268936823F4805342
:101AB000816B0B439360436A13F0200F06D00268DA
:101AC000936823F40053C16B0B439360436A13F094
:101AD000400F0AD00268536823F48013016C0B4353
:101AE0005360036CB3F5801F0BD0436A13F0800F73
:101AF00006D00268536823F40023816C0B435360C3
:101B000070470268536823F4C003416C0B43536071
:101B1000EBE72DE9F04105460F4616469846069C30
:101B20002B68DB6937EA03030CBF01230023B342B0
:101B30001CD1B4F1FF3FF3D000F038F9A0EB08005E
:101B4000A04201D8002CEBD12A68136823F4D0738B
:101B500013602A68936823F00103936020236B6766
:101B6000AB67002385F87030032000E00020BDE85B
:101B7000F0812DE9F04182B01E46436F202B55D1F4
:101B800004460D469046002955D0002A55D090F8BD
:101B90007030012B53D0012380F870300023C367CD
:101BA0002123436700F002F90746A4F85080A4F807
:101BB0005280A368B3F5805F02D04FF0000813E0B5
:101BC000236913B14FF000080EE0A84600250BE092
:101BD00038F8023B2268C3F308031385B4F8523087
:101BE000013B9BB2A4F85230B4F852309BB273B1AF
:101BF00000963B46002280212046FFF78AFF00BB6B
:101C0000002DE5D0236815F8012B1A85E6E700962C
:101C10003B46002240212046FFF77BFF034690B958
:101C200020226267002284F8702000E00223184618
:101C300002B0BDE8F0810123F9E70123F7E70223B1
:101C4000F5E70323F3E70323F1E730B583B0044658
:101C50000023C36700F0AAF8054623681B6813F049
:101C6000080F0CD123681B6813F0040F15D1202333
:101C70006367A367002084F8700003B030BD6FF085
:101C80007E430093034600224FF400112046FFF7E5
:101C900040FF0028E6D00320EFE76FF07E4300937B
:101CA0002B4600224FF480012046FFF732FF002828
:101CB000DDD00320E1E768B310B50446436F03B3FA
:101CC000242363672268136823F00103136020460E
:101CD000FFF7ACFC012813D0636ABBB922685368D4
:101CE00023F4904353602268936823F02A0393609F
:101CF0002268136843F0010313602046FFF7A5FF35
:101D000010BD80F87030FEF79BFCD9E72046FFF746
:101D10009BFEE3E701207047104B1B680BB90120C5
:101D2000704710B504464FF47A70B0FBF3F30C4AD9
:101D30001068B0FBF3F001F031FB68B90F2C01D94A
:101D400001200AE0002221464FF0FF3001F0E4FAC2
:101D5000044B1C60002000E0012010BD00000020AA
:101D6000080000200400002010B5094A136843F45D
:101D700080731360032001F0BDFA0020FFF7CCFF51
:101D800010B10124204610BD0446FEF7B1FCF9E76E
:101D900000200240034A1368034909680B4413609A
:101DA000704700BF5C02002000000020014B186853
:101DB000704700BF5C02002038B50446FFF7F6FF0D
:101DC0000546B4F1FF3F02D0044B1B681C44FFF7EB
:101DD000EDFF401BA042FAD338BD00BF0000002039
:101DE00030B583B00546204B9B6D13F0805F0BD060
:101DF00001F032FAB0F5007F17D0802D1FD82DD01A
:101E0000702D2DD000211BE0174CA36D43F08053A3
:101E1000A365A36D03F080530193019B01F01CFAAD
:101E2000A36D23F08053A365E4E7802D03D9A02D93
:101E300003D9022104E0002102E0012100E0032196
:101E40000A4A136823F007030B431360136803F077
:101E500007038B4206D1002003B030BD0221EFE71B
:101E60000121EDE70120F7E70010024000200240C9
:101E7000284A9368D26802F0030213F00C030AD0D8
:101E80000C2B06D0042B1FD0082B20D0002002469C
:101E900010E0012AF6D11F4A126812F0080F0CD187
:101EA0001C4AD2F89420C2F303221B4951F8222085
:101EB00043B100200C2B0DD07047164A1268C2F3B4
:101EC0000312F2E71046F5E714480022F2E714483F
:101ED0000022EFE70F4BDB6803F00303022B15D062
:101EE000032B15D00B4BD868C0F302100130D96812
:101EF000C1F3062102FB01F2B2FBF0F2D868C0F395
:101F0000416001304000B2FBF0F0D5E7034AE9E759
:101F1000034AE7E700100240F83F00080024F400FD
:101F200000127A00002800F0C782F0B583B00446A2
:101F3000AD4B9D6805F00C05DE6806F003060368EE
:101F400013F0100F5ED0E5B10C2D18D0A369002B53
:101F500000F0B880A44A136843F001031360FFF750
:101F600025FF0746A04B1B6813F0020F40F0978037
:101F7000FFF71CFFC01B0228F4D90323A8E2012E9F
:101F8000E4D1994B1B6813F0020F03D0A369002B17
:101F900000F09582206A944B1B6813F0080F5ED006
:101FA000914B1B6803F0F00398425FD9FFF718FFCD
:101FB000002840F086828C4B1A6842F008021A60B2
:101FC0001A6822F0F002216A0A431A605A6822F461
:101FD0007F42E16942EA01225A60FFF749FF824BE2
:101FE0009B68C3F30313814AD35C03F01F03D840FB
:101FF0007F4B18607F4B1868FFF78EFE0346002862
:1020000040F06682236813F0010F7AD0082D6FD05C
:102010000C2D6BD06368B3F5803F00F09180B3F571
:10202000A02F00F09380704B1A6822F480321A605F
:102030001A6822F480221A606368002B00F09380F3
:10204000FFF7B4FE0746684B1B6813F4003F58D1F6
:10205000FFF7ACFEC01B6428F5D9032338E2624BBE
:10206000D3F894301B0903F0F0039DE75E4B1A6828
:1020700042F008021A601A6822F0F002216A0A434C
:102080001A605A6822F47F42E16942EA01225A60EA
:10209000206AFFF7A5FE00289FD0012318E2524BCB
:1020A0001A6842F008021A601A6822F0F002216AE7
:1020B0000A431A605A6822F47F42E16942EA012227
:1020C0005A609FE7484A136823F001031360FFF743
:1020D0006DFE0746444B1B6813F0020F92D0FFF7CA
:1020E00065FEC01B0228F5D90323F1E1032E91D12F
:1020F0003D4B1B6813F4003F03D06368002B00F0D6
:10210000E281236813F0020F4FD0042D3CD00C2D38
:1021100038D0E368002B78D0334A136843F48073D7
:102120001360FFF743FE06462F4B1B6813F4806FC6
:1021300062D1FFF73BFE801B0228F5D90323C7E1DC
:10214000294A136843F48033136075E703F1804331
:10215000A3F53C331A6842F480221A601A6842F4EC
:1021600080321A6068E7FFF721FE07461E4B1B68A6
:1021700013F4003FC5D0FFF719FEC01B6428F5D942
:102180000323A5E1022EC4D1174B1B6813F4806F03
:1021900003D0E368002B00F09881134A536823F0C2
:1021A000F853216943EA01635360236813F0080F71
:1021B00056D06369002B3CD00B4AD2F8943043F0E0
:1021C0000103C2F89430FFF7F1FD0646064BD3F841
:1021D000943013F0020F43D1FFF7E8FD801B022873
:1021E000F4D9032374E100BF00100240E03F00086F
:1021F0000800002004000020B74A536823F0F85379
:10220000216943EA01635360CFE7B34A136823F4BB
:1022100080731360FFF7CAFD0646AF4B1B6813F4CB
:10222000806FC2D0FFF7C2FD801B0228F5D90323BF
:102230004EE1A94AD2F8943023F00103C2F8943059
:10224000FFF7B4FD0646A44BD3F8943013F0020F09
:1022500006D0FFF7ABFD801B0228F4D9032337E13A
:10226000236813F0040F7AD09B4B9B6D13F0805FB3
:1022700036D1994B9A6D42F080529A659B6D03F06E
:1022800080530193019B0126944B1B6813F4807FBC
:1022900028D0A368012B39D0052B3FD08E4BD3F823
:1022A000902022F00102C3F89020D3F8902022F071
:1022B0000402C3F89020A368002B3DD0FFF776FD01
:1022C0000746854BD3F8903013F0020F46D1FFF745
:1022D0006DFDC01B41F288339842F2D90323F7E029
:1022E0000026D1E77D4A136843F480731360FFF73B
:1022F0005DFD0746794B1B6813F4807FC9D1FFF75A
:1023000055FDC01B0228F5D90323E1E0724AD2F83B
:10231000903043F00103C2F89030CCE76E4BD3F815
:10232000902042F00402C3F89020D3F8902042F0AD
:102330000102C3F89020BEE7FFF738FD0746664B61
:10234000D3F8903013F0020F08D0FFF72FFDC01B19
:1023500041F288339842F2D90323B9E05EBBA36A05
:10236000002B00F0B4800C2D76D0022B29D05A4BD4
:102370001A6822F080721A601B6813F0205F04D183
:10238000554AD36823F00303D360534AD36823F03C
:10239000887323F48033D360FFF708FD04464E4B67
:1023A0001B6813F0007F55D0FFF700FD001B0228CB
:1023B000F5D903238CE0484A936D23F0805393654D
:1023C000CDE7454A136823F080731360FFF7EEFCF6
:1023D0000546414B1B6813F0007F06D0FFF7E6FC73
:1023E000401B0228F5D9032372E03B4AD3683C49DD
:1023F0001940E36A206B013843EA0013606B43EA3B
:102400000023E06B4008013843EA4053206C400849
:10241000013843EA4063A06B000943EA40430B43A1
:10242000D360136843F080731360D36843F0807304
:10243000D360FFF7BBFC0446274B1B6813F0007FFB
:1024400006D1FFF7B3FC001B0228F5D903233FE0B8
:1024500000233DE000233BE0012B43D01E4BDB6813
:1024600003F00301E26A91423ED103F07002216B56
:102470000139B2EB011F39D103F4FE42616BB2EBBB
:10248000012F35D103F40031A26B073A18BF0122A6
:1024900091422FD103F4C001E26B5208013AB1EB33
:1024A000425F29D103F0C063226C5208013AB3EBBA
:1024B000426F23D100230BE001231846704701230C
:1024C00006E0012304E0012302E0012300E00023F1
:1024D000184603B0F0BD00BF00100240007000407D
:1024E0008C809DF90123F3E70123F1E70123EFE756
:1024F0000123EDE70123EBE70123E9E70123E7E708
:10250000002800F0988070B504464F4B1B6803F01C
:1025100007038B420BD24C4A136823F007030B438B
:102520001360136803F007038B4240F086800D466A
:10253000236813F0010F39D06368032B09D0022BF5
:1025400026D063BB414A126812F0020F06D1012067
:1025500070E03E4A126812F0007F70D03B498A68F2
:1025600022F0030213438B60FFF720FC0646374B33
:102570009B6803F00C036268B3EB820F16D0FFF781
:1025800015FC801B41F288339842F0D9032051E0BA
:102590002E4A126812F4003FE0D101204AE02B4A93
:1025A000126812F4806FD9D1012043E0236813F040
:1025B000020F06D0254A936823F0F003A1680B436D
:1025C0009360214B1B6803F00703AB420AD91E4AF4
:1025D000136823F007032B431360136803F007030A
:1025E000AB422ED1236813F0040F06D0174A93682C
:1025F00023F4E063E1680B439360236813F0080F52
:1026000007D0124A936823F46053216943EAC10357
:102610009360FFF72DFC0D4B9B68C3F303130C4A2B
:10262000D35C03F01F03D8400A4B18600A4B1868AC
:10263000FFF772FB70BD012070470120FAE701200F
:10264000F8E70120F6E700BF00200240001002403A
:10265000E03F00080800002004000020014B18683B
:10266000704700BF0800002008B5FFF7F7FF054BD3
:102670009B68C3F30223044AD35C03F01F03D840D2
:1026800008BD00BF00100240F03F000808B5FFF78A
:10269000E5FF054B9B68C3F3C223044AD35C03F0F8
:1026A0001F03D84008BD00BF00100240F03F0008E3
:1026B000F8B55A4BDB6813F0030F18D0574BDB68A3
:1026C00003F003030268934202D001242046F8BDC0
:1026D000002A00F0A080514BDB68C3F302130133E2
:1026E0004268934201D00124F0E7002409E0036826
:1026F000022B59D0032B5ED0012B44D00124002C97
:10270000E4D10F460646454A136823F08063136000
:10271000FFF74CFB0546414B1B6813F0006F05D0DB
:10272000FFF744FB401B0228F5D90324002CCDD130
:10273000002F4ED139490B6923F41F3323F4407322
:10274000B068F2681209520442EA002213430B6196
:10275000324A136843F080631360FFF727FB054696
:102760002E4B1B6813F0006F05D1FFF71FFB401BBA
:102770000228F5D90324002CA8D1284A1369B1698D
:102780000B431361A2E7254A126812F0020F1ED014
:10279000224DEA6822F073024468013C43EA0413C4
:1027A0001343EB600024AAE71C4A126812F4806FFE
:1027B000EED10124A3E7194A126812F4003FE7D1D1
:1027C000164A126812F4802FE2D1012497E70124FF
:1027D00095E7012F0FD01148026922F0C06222F460
:1027E000FE42B16873695B08013B5B0643EA012363
:1027F00013430361ACE70948026922F4C00222F4E2
:10280000FE42B16833695B08013B5B0543EA012383
:10281000134303619CE7012458E700BF0010024006
:10282000F8B5514BDB6813F0030F18D04E4BDB6843
:1028300003F003030268934202D001242046F8BD4E
:10284000002A00F08E80484BDB68C3F3021301338B
:102850004268934201D00124F0E7002409E00368B4
:10286000022B59D0032B5ED0012B44D00124002C25
:10287000E4D10F4606463C4A136823F080531360A8
:10288000FFF794FA0546384B1B6813F0005F05D03C
:10289000FFF78CFA401B0228F5D90324002CCDD178
:1028A000002F4ED130494B6923F41F3323F440737A
:1028B000B068F2681209520442EA002213434B61E5
:1028C000294A136843F080531360FFF76FFA0546F7
:1028D000254B1B6813F0005F05D1FFF767FA401B1B
:1028E0000228F5D90324002CA8D11F4A5369716925
:1028F0000B435361A2E71C4A126812F0020F1ED06C
:10290000194DEA6822F073024468013C43EA04135B
:102910001343EB600024AAE7134A126812F4806F95
:10292000EED10124A3E7104A126812F4003FE7D168
:102930000D4A126812F4802FE2D1012497E7012496
:1029400095E70948426922F0C06222F4FE42B1686C
:1029500033695B08013B5B0643EA01231343436190
:10296000AEE701246AE700BF001002402DE9F04104
:1029700082B00446036813F4006F33D0436EB3F59E
:10298000800F29D011D9B3F5000F1ED0B3F5400F39
:1029900018D10027664AD2F8883023F44003616ECC
:1029A0000B43C2F8883000261EE043B900210430F2
:1029B000FFF77EFE0746002FECD03E4614E00126CE
:1029C000374611E0012637460EE0594AD36843F4F2
:1029D0008033D3600027DDE700212030FFF720FFA0
:1029E0000746E8E700263746236813F4805F15D0D2
:1029F000A36EB3F1807F7DD069D9B3F1007F73D02E
:102A0000B3F1407F6DD1002F7BD1494AD2F8883095
:102A100023F04073A16E0B43C2F88830236813F48F
:102A2000003F00F08E80424B9B6D13F0805F6AD1B7
:102A30003F4B9A6D42F080529A659B6D03F0805334
:102A40000193019B4FF001083A4A136843F48073E5
:102A50001360FFF7ABF90546364B1B6813F4807F14
:102A600005D1FFF7A3F9401B0228F5D90327002F52
:102A700062D12F4BD3F8903013F4407316D0D4F8B2
:102A800084209A4212D02A4AD2F8903023F440731C
:102A9000D2F8901041F48031C2F89010D2F8901022
:102AA00021F48031C2F89010C2F8903013F0010F79
:102AB0002CD1002F40F043811D4AD2F8903023F4EE
:102AC0004073D4F884100B43C2F8903035E02BB932
:102AD0000021201DFFF7ECFD074694E7012637464D
:102AE0009CE70126374699E7114AD36843F48033BF
:102AF000D36088E7002104F12000FFF791FE07462C
:102B000081E73E468AE74FF000089DE7FFF74EF960
:102B10000546074BD3F8903013F0020FC9D1FFF7E9
:102B200045F9401B41F288339842F2D90327C0E7A8
:102B300000100240007000403E46B8F1000F40F027
:102B40000081236813F0010F08D09D4AD2F8883025
:102B500023F00303A16B0B43C2F88830236813F002
:102B6000020F08D0964AD2F8883023F00C03E16BAC
:102B70000B43C2F88830236813F0040F08D0904A42
:102B8000D2F8883023F03003216C0B43C2F8883030
:102B9000236813F0080F08D0894AD2F8883023F050
:102BA000C003616C0B43C2F88830236813F0100F28
:102BB00008D0834AD2F8883023F44073A16C0B43C9
:102BC000C2F88830236813F0200F08D07C4AD2F86E
:102BD000883023F44063E16C0B43C2F888302368EB
:102BE00013F4007F08D0764AD2F8883023F44023CB
:102BF000E16D0B43C2F88830236813F4806F08D06E
:102C00006F4AD2F8883023F44013216E0B43C2F888
:102C10008830236813F0400F08D0694AD2F8883012
:102C200023F44053216D0B43C2F88830236813F01E
:102C3000800F08D0624AD2F8883023F44043616D97
:102C40000B43C2F88830236813F4807F08D05C4AB5
:102C5000D2F8883023F44033A16D0B43C2F888309A
:102C6000236813F4005F0FD0554AD2F8883023F060
:102C70004063E16E0B43C2F88830E36EB3F1006F3E
:102C800065D0B3F1806F67D0236813F4002F0FD0A5
:102C90004B4AD2F8883023F04063216F0B43C2F8CF
:102CA0008830236FB3F1006F5ED0B3F1806F60D0D6
:102CB000236813F4802F0FD0414AD2F8883023F0D4
:102CC0004063616F0B43C2F88830636FB3F1006FEC
:102CD00057D0B3F1806F59D0236813F4804F0FD0D1
:102CE000374AD2F8883023F04053A16F0B43C2F823
:102CF0008830A36FB3F1805F50D0B3F1005F55D03F
:102D0000236813F4004F08D02D4AD2F8883023F0FE
:102D10008043E16F0B43C2F88830236813F4803F8F
:102D200009D0274AD2F8883023F00043D4F8801025
:102D30000B43C2F88830304602B0BDE8F0813E4611
:102D4000FBE61F4A936D23F080539365F9E6D36841
:102D500043F48013D36097E70121201DFFF7A8FCFF
:102D6000002891D006468FE7D36843F48013D360E0
:102D70009EE70121201DFFF79BFC002898D0064606
:102D800096E7D36843F48013D360A5E70121201DA3
:102D9000FFF78EFC00289FD006469DE70221201DEC
:102DA000FFF786FC0028ABD00646A9E7022104F114
:102DB0002000FFF735FD0028A2D00646A0E700BF9F
:102DC00000100240F0B482B0002341E0D0F82CC0E3
:102DD0002CEA040CC6F3C0049C4044EA0C04C46210
:102DE00086E0062400E00024B4403C430235664EF1
:102DF00046F82540654C2568D44304EA05064F682B
:102E000017F4803F01D042EA0506604D2E606D68E0
:102E100004EA05064F6817F4003F01D042EA0506B0
:102E20005A4D6E60AD6804EA05064F6817F4801FBE
:102E300001D042EA0506554DAE60ED682C404E6863
:102E400016F4001F01D042EA0504504AD460013351
:102E50000A6832FA03F400F0938001249C40224077
:102E6000F5D04D68022D01D0122D10D1DE080836A4
:102E700050F826C003F00705AF000F25BD402CEA2F
:102E8000050C0D69BD4045EA0C0540F82650066862
:102E90005F000325BD40ED4305EA060C4E6806F0D1
:102EA0000306BE4046EA0C0606604E6806F1FF3C8B
:102EB000BCF1010F03D9112E01D0122E11D1866859
:102EC00005EA060CCE68BE4046EA0C0686604668F7
:102ED00026EA040C4E68C6F300169E4046EA0C062D
:102EE00046604E6806F0030CBCF1030F3FF46EAF72
:102EF000C46825408C68BC402C43C4604C6814F006
:102F0000805FA4D0224C256E45F001052566246E15
:102F100004F001040194019C9D08AE1C1A4C54F865
:102F2000267003F00304A6000F24B44027EA040728
:102F3000B0F1904F3FF457AF164CA04216D004F5B5
:102F40008064A04214D004F58064A04212D004F53D
:102F50008064A04210D004F58064A0420ED004F535
:102F60008064A0423FF43DAF07243DE701243BE7E6
:102F7000022439E7032437E7042435E7052433E73F
:102F800002B0F0BC704700BF0000014000040140E7
:102F900000100240000400480AB18161704781625C
:102FA000704770B4446C04F01C05066C0124AC40FE
:102FB0007460046863608368102B05D003689960AF
:102FC0000368DA6070BC704703689A600368D96070
:102FD000F8E70000002868D010B403460068344ABF
:102FE000904244D8334A02443349A1FB02121209E9
:102FF00092005A64314A1A64022283F8252001683B
:1030000021F4FF4121F070019A68DC6822431C69B9
:1030100022435C6922439C692243DC6922431C6A87
:1030200022430A4302609A68B2F5804F15D0196CAA
:10303000224A914226D0224A1168586C00F01C04A2
:103040000F20A04021EA00011160116858685C6CF3
:1030500004F01C04A040014311600020D863012249
:1030600083F8252083F824005DF8044B7047154A47
:1030700002441149A1FB0212120992005A64124A39
:103080001A64B9E7A8321168586C00F01C040F20CC
:10309000A04021EA00011160116858685C6C04F0DE
:1030A0001C04A04001431160D7E70120704700BF16
:1030B00007040240F8FFFDBFCDCCCCCC000002409D
:1030C000A8040240F8FBFDBF0004024038B590F8A8
:1030D0002440012C33D0012480F8244090F825406E
:1030E000E4B2012C04D0002380F82430022038BD43
:1030F0000446022084F825000020E0632568286843
:1031000020F0010028602046FFF74BFF236B5BB1E6
:103110002268136843F00E0313602268136843F0BB
:10312000010313600020E2E72268136823F0040320
:1031300013602268136843F00A031360EDE702206E
:10314000D5E708B590F82530DBB2022B03D0042375
:10315000C363012008BD0268136823F00E031360E7
:103160000268136823F001031360436C03F01C032F
:10317000016C012202FA03F34B6080F82520002342
:1031800080F82430836B13B198470020E2E70020D9
:10319000E0E738B5036C196804682568436C03F0F0
:1031A0001C0304229A400A4215D015F0040F12D0D5
:1031B000236813F0200F03D1236823F00403236056
:1031C000436C03F01C02016C042393404B60036BBF
:1031D00003B1984738BD02229A400A421CD015F02C
:1031E000020F19D0236813F0200F06D1236823F0B3
:1031F0000A032360012380F82530436C03F01C028E
:10320000016C022393404B60002380F82430C36A92
:10321000002BDFD09847DDE7082202FA03F30B42C8
:10322000D8D015F0080FD5D0236823F00E03236003
:10323000436C03F01C03016C012202FA03F34B60A0
:10324000C26380F82520002380F82430436B002BD4
:10325000C0D09847BEE70000024B186800F4C06079
:10326000704700BF00700040B0F5007F0FD01E4BCC
:103270001B6803F4C063B3F5806F33D01A4A136838
:1032800023F4C06343F48063136000207047164B3F
:103290001B6803F4C063B3F5007F1FD0124A1368A4
:1032A00023F4C06343F400731360104B1A68322395
:1032B00003FB02F30E4AA2FB03239B0C01330A4AD1
:1032C000526912F4806F02D00BB1013BF7E7064B55
:1032D0005B6913F4806F03D10020704700207047B2
:1032E0000320704700207047007000400800002055
:1032F00083DE1B43074AD36823F4E0631B041B0CE3
:10330000000200F4E060184340F0BF6040F4003079
:10331000D060704700ED00E030B4174BDB68C3F3BA
:103320000223C3F10704042C28BF04241D1D062D0D
:1033300001D9033B00E000234FF0FF3505FA04F408
:1033400021EA0401994005FA03F322EA0303194331
:10335000002809DB0901C9B200F1604000F56140B5
:1033600080F8001330BC704700F00F000901C9B2AB
:10337000024B1954F6E700BF00ED00E014ED00E049
:10338000002807DB00F01F02400901239340024A96
:1033900042F82030704700BF00E100E00138B0F192
:1033A000807F0AD2064B5860064AF02182F823102B
:1033B0000020986007221A6070470120704700BF04
:1033C00010E000E000ED00E00F49D1F8883043F450
:1033D0007003C1F888300D4B1A6842F001021A6080
:1033E000002098601A6822F0A85222F410221A6075
:1033F0004FF48052DA601A6822F480221A609861D1
:103400004FF000638B60704700ED00E00010024059
:10341000DFF834D0002103E00C4B5B5843500431FB
:103420000B480C4B42189A42F6D30B4A02E0002399
:1034300042F8043B094B9A42F9D3FFF7C5FF00F06D
:1034400011F8FCF77BFFFEE70080012078400008C0
:1034500000000020700000207000002064020020A6
:10346000FEE7000070B50D4D0D4C641BA410002646
:10347000A64209D10B4D0C4C00F096FD641BA41024
:103480000026A64205D170BD55F8043B9847013689
:10349000EEE755F8043B98470136F2E7684000082C
:1034A00068400008684000086C4000080244034679
:1034B000934200D1704703F8011BF9E70EB400B541
:1034C0009CB01DAB029006906FF000410948079137
:1034D0000491094953F8042B05910068019302A94E
:1034E00000F068F8029B00221A701CB05DF804EB33
:1034F00003B070470C0000200802FFFF2DE9F047E1
:103500008E689E4282460C469146984638D8B1F85D
:103510000CC01CF4906F31D062692568096902EB18
:1035200042026F1A02EBD272013355103B449D42A6
:1035300038BF1D461CF4806F30D0294600F032FBA6
:10354000064650B90C23CAF80030A38943F0400363
:10355000A3814FF0FF30BDE8F0873A46216900F0C3
:10356000ABFAA38923F4906343F08003A38126611F
:1035700065613E44ED1B2660A5604646464500D980
:10358000464632464946206800F0A4FAA3689B1BD1
:10359000A36023681E4426600020DCE72A4600F072
:1035A0005BFB06460028E2D12169504600F0ACFAE8
:1035B000C8E700002DE9F04F1E468B891B069DB021
:1035C00007460D4614460ED50B6963B9402100F03D
:1035D000E9FA2860286120B90C233B604FF0FF30E6
:1035E000C9E040236B610023099320238DF8293023
:1035F000DFF89C91039630238DF82A304FF0010AB2
:1036000023461E4613F8012B0AB1252AF9D1B6EB41
:10361000040B0BD05B46224629463846FFF76EFF67
:10362000013000F0A380099B5B4409933378002BA1
:1036300000F09C8000234FF0FF32CDE905230136D6
:10364000049307938DF853301A933446052214F8E7
:10365000011B4F48FCF7A4FD049BC0B9D90644BF29
:1036600020228DF853201A0744BF2B228DF85320B7
:1036700032782A2A13D0079A344600200A26214697
:1036800011F8013B303B092B4BD970B914E0A0EB8A
:1036900009000AFA00F0184304902646D5E7039A79
:1036A000111D12680391002A01DB079204E05242C7
:1036B00043F002030792049323782E2B0CD16378F6
:1036C0002A2B33D1039B1A1D1B680392002BB8BF12
:1036D0004FF0FF33023405932E4E217803223046FB
:1036E000FCF75EFD38B14023801B03FA00F0049B19
:1036F00003430134049314F8011B27488DF8281064
:103700000622FCF74DFD002838D0244B13BB039B49
:10371000073323F0070308330393099B43440993BA
:103720006EE706FB023201200C46A8E700230134B5
:10373000059319460A26204610F8012B303A092A2B
:1037400003D9002BC8D00591C6E706FB0121012350
:103750000446F0E703AB00932A46114B04A9384610
:10376000AFF30080B0F1FF3F8046D6D1AB895B0656
:103770003FF534AF09981DB0BDE8F08F03AB00935F
:103780002A46074B04A9384600F082F8EAE700BF52
:10379000284000082E4000083240000800000000C9
:1037A000FD3400082DE9F04791461F468A680B69F1
:1037B000DDF820809342B8BF1346C9F8003091F875
:1037C000432006460C4612B10133C9F80030236885
:1037D000990642BFD9F800300233C9F80030256895
:1037E00015F0060507D104F1190AE368D9F800209D
:1037F0009B1AAB4228DC94F843302268003318BF90
:10380000012392062DD404F1430239463046C047C5
:10381000013020D02368E568D9F8002003F00603C2
:10382000042B08BFAD1AA36822690CBF25EAE57511
:1038300000259342C4BF9B1AED184FF000091A34BB
:103840004D451AD1002008E0012352463946304642
:10385000C047013003D14FF0FF30BDE8F08701359C
:10386000C3E7E1185A1C302081F84300224494F841
:10387000451082F843100233C5E70123224639463A
:103880003046C0470130E6D009F10109D8E7000011
:103890002DE9F04306460C4601F14300097E85B050
:1038A0006E29984617460C9B00F0BA8024D86329ED
:1038B00039D00AD8002900F0C380582900F091803F
:1038C00004F1420584F8421035E0642901D06929E9
:1038D000F6D125681A6815F0800F02F104012CD08A
:1038E00012681960002A03DA2D23524284F843300B
:1038F000DFF8BCC10A233FE0732900F0A58008D897
:103900006F2921D07029DBD1226842F02002226089
:1039100003E0752918D07829D2D1782284F845207F
:10392000DFF890C161E01A68111D1960136884F80E
:10393000423004F14205012393E01268196015F04A
:10394000400F18BF12B2CDE7D4F800C01A681CF0BF
:10395000800F02F104051D6001D0126803E01CF025
:10396000400FFAD01288DFF848C16F290CBF082336
:103970000A23002184F843106568A560002DA2BFCA
:10398000216821F0040121600AB9002D46D00546C6
:10399000B2FBF3F103FB112E93421CF80EE005F885
:1039A00001ED39D9082B0BD12368DA0708D5236933
:1039B00062689A42DEBF302305F8013C05F1FF350D
:1039C000401B2061CDF800803B4603AA21463046CB
:1039D000FFF7E8FE013049D14FF0FF3005B0BDE8F8
:1039E000F083DFF8CCC084F845101D68216855F8D5
:1039F000042B1D600D060BD5CD0744BF41F02001FF
:103A000021601AB9236823F0200323601023B0E754
:103A10004B0648BF92B2EFE70A46B9E70546C1E751
:103A20001A68D4F800C06169151D1D601CF0800F74
:103A3000136801D0196003E01CF0400FFAD0198020
:103A4000002323610546BDE71A68111D196015683A
:103A5000626800212846FCF7A3FB08B1401B6060A8
:103A600063682361002384F84330ABE723692A4667
:103A700039463046C0470130AED023689B0713D487
:103A8000E068039B9842B8BF1846A7E701234A465F
:103A900039463046C04701309ED00135E368039A6D
:103AA0009B1AAB42F2DCEBE7002504F11909F5E7BC
:103AB000394000084A4000080A44914200F1FF33AF
:103AC00000D1704710B511F8014B03F8014F914236
:103AD000F9D110BD884210B501EB020302D983422F
:103AE0001C4607D8421E994208D011F8014B02F833
:103AF000014FF8E783189A1A9A4200D110BD14F8C2
:103B0000011D03F8011DF7E738B50546002945D02A
:103B100051F8043C0C1F002BB8BFE41800F0D2F899
:103B20001F4A1368104633B9636014602846BDE825
:103B3000384000F0C8B8A3420CD9216862189342FB
:103B400004BF1A685B68636004BF52182260046097
:103B5000ECE713465A680AB1A242FAD91968581814
:103B6000A0420BD120680144581882421960DDD16F
:103B7000106852685A6001441960D7E702D90C23D3
:103B80002B60D3E7206821188A4204BF116852686D
:103B9000626004BF091821605C60C7E738BD00BFE0
:103BA0008C000020F8B5CD1C25F0030508350C2D40
:103BB00038BF0C25002D064601DBA94203D90C2392
:103BC00033600020F8BD00F07DF821490A681446F2
:103BD0009CB9204F3B6823B92146304600F062F87B
:103BE00038602946304600F05DF8431C23D10C2391
:103BF0003360304600F067F8E3E723685B1B17D4B7
:103C00000B2B03D923601C44256004E06368A242A7
:103C10000CBF0B605360304600F055F804F10B0008
:103C2000231D20F00700C21ACCD01B1AA350C9E7ED
:103C300022466468CCE7C41C24F00304A042E3D00D
:103C4000211A304600F02EF80130DDD1CFE700BF59
:103C50008C00002090000020F8B5074614460E4660
:103C600021B91146BDE8F840FFF79CBF22B9FFF724
:103C70004BFF25462846F8BD00F026F8A0420FD29B
:103C800021463846FFF78EFF05460028F2D0314620
:103C90002246FFF711FF31463846FFF735FFE9E7C7
:103CA0003546E7E738B5064C00230546084623604D
:103CB00000F012F8431C02D1236803B12B6038BD19
:103CC000600200207047704751F8043C181F002B19
:103CD000BCBF0B58C0187047044A05491368002B35
:103CE00008BF0B4618441060184670479400002027
:103CF000680200202DE9F04F099F154604468E46C4
:103D00001E46002B40F0CC808A42B2FA82FC4CD98D
:103D1000BCF1000F0BD0CCF1200801FA0CFE20FA08
:103D200008F802FA0CF548EA0E0E00FA0CF44FEA15
:103D300015491FFA85F8BEFBF9FA210C09FB1AE3B5
:103D40000AFB08FB41EA03439B452AD9EB180AF119
:103D5000FF3004D29B4502D9AAF102002B44A3EB09
:103D60000B03A4B2B3FBF9F209FB123302FB08F810
:103D700044EA0344A04516D92C1902F1FF3303D2BB
:103D8000A04501D9931E2C44A4EB080443EA00404B
:103D900027B124FA0CF400233C607B603146BDE877
:103DA000F08F5046DBE71346EEE702B9FFDEBCF1C9
:103DB000000F2ED18B1A01264FEA154EAAB2B3FB83
:103DC000FEF8210C0EFB183308FB02F941EA03430D
:103DD000994561D9EB1808F1FF3004D2994502D911
:103DE000A8F102002B44A3EB0903A4B2B3FBFEF13C
:103DF0000EFB11334A4344EA0344A2424ED92C1924
:103E000001F1FF3303D2A24201D98B1E2C44A41A24
:103E1000BCE7CCF1200E02FA0CF521FA0EF901FAFA
:103E20000CF320FA0EFE4EEA03034FEA154800FA9F
:103E30000CF4B9FBF8F11FFA85FE08FB1192180C7F
:103E400001FB0EF640EA0242964221D9AA1801F17E
:103E5000FF3003D2964201D9881E2A44921B9BB29E
:103E6000B2FBF8F908FB192209FB0EFE43EA0243F4
:103E70009E450FD9EB1809F1FF3604D29E4502D9B1
:103E8000A9F102062B44A3EB0E0346EA004693E792
:103E90000846E3E74E46F6E74046A4E70B46B6E79A
:103EA0008B4205D90FB1C7E900010026304675E7FE
:103EB000B3FA83FCBCF1000F0FD18B4201D38242D5
:103EC00009D8841A61EB030E0120002F6AD0C7E9DC
:103ED000004E002662E76046F7E7CCF1200E03FAB9
:103EE0000CF322FA0EF521FA0EF41D4301FA0CF33D
:103EF00020FA0EF10B434FEA154A00FA0CF6B4FB18
:103F0000FAF91FFA85F80AFB19401C0C09FB08F1A5
:103F100044EA0044A14202FA0CF23FD92C1909F1FB
:103F2000FF3004D2A14202D9A9F102002C44641A44
:103F30009BB2B4FBFAF90AFB194409FB08F843EAFF
:103F4000044188452CD9691809F1FF3304D288450A
:103F500002D9A9F10203294443EA0040A1EB080178
:103F6000A0FB02894945C2464C4602D306D14645CC
:103F700004D2B8EB020A69EB0504013897B1B6EB3D
:103F80000A0361EB040606FA0EFE23FA0CF34EEA6E
:103F9000030326FA0CF6C7E900369AE74846C6E757
:103FA0004B46D9E73E46F9E6F8B500BFF8BC08BC79
:103FB0009E467047F8B500BFF8BC08BC9E467047E7
:103FC0006B6169737575203A202564200A00000032
:103FD000646D612072756E203A202564200A00000D
:103FE00000000000000000000102030406070809A9
:103FF0000000000001020304A0860100400D030040
:10400000801A060000350C0040420F0080841E001C
:1040100000093D0000127A000024F40000366E0111
:104020000048E801006CDC02232D302B2000686C76
:104030004C006566674546470030313233343536CB
:104040003738394142434445460030313233343504
:10405000363738396162636465660000000000002D
:0840600094FCFF7F0100000049
:084068009902000800000000AD
:084070007502000800000000C9
:10407800010000001000000000093D0010000020B1
:104088000000000000000000000000000000000028
:104098000000000000000000000000000000000018
:1040A8000000000000000000000000000000000008
:1040B80000000000000000000000000000000000F8
:1040C80000000000000000000000000000000000E8
:1040D80000000000000000000000000000000000D8
:0400000508003411AA
:00000001FF
